:020000040800F2
:10000000581A0020450100084D0100080F020008A1
:1000100051010008530100085501000800000000CC
:100020000000000000000000000000005701000870
:10003000590100080000000097010008353600084B
:100040005F0100085F0100085F0100085F01000810
:100050005F0100085F010008390F00085F01000818
:10006000690F00085F0100085F0100085F010008D8
:100070005F0100085F0100085F0100085F010008E0
:100080005F0100085F0100085F0100085F010008D0
:100090005F0100085F0100085F0100085F010008C0
:1000A0005F0100085F0100085F0100085F010008B0
:1000B0005F0100085F0100085F0100085F010008A0
:1000C0005F0100085F0100085F0100085F01000890
:1000D0005F0100085F0100085F0100085F01000880
:1000E000530F00085F0100085F0100085F0100086E
:1000F0005F0100085F0100085F0100085F01000860
:100100005F0100085F0100085F0100085F0100084F
:100110005F0100085F0100085F0100085F0100083F
:100120005F0100085F0100085F0100085F0100082F
:10013000DFF80CD000F0DAFB004800476709000840
:10014000581A00200648804706480047FEE7FEE7A9
:10015000FEE7FEE7FEE7FEE7FEE7FEE7FEE7FEE777
:100160004536000831010008EFF3108072B6704781
:1001700080F310887047324A1368012B04D04FF087
:10018000010313602F4A10602F4A11602F484FF06F
:10019000805101607047EFF3108272B62848016801
:1001A00091B14FF0000101602648016829B1EFF3D9
:1001B000098121E9F00F0068016023490968096895
:1001C000B1E8F00F81F3098882F310884EF0040E35
:1001D00070471D4908601B494FF00000086018492E
:1001E0004FF0010008601A484FF47F01D0F800205A
:1001F00041EA0201016015484FF080510160154845
:100200000068006880F3088861B662B670471EF027
:10021000040F14BFEFF30880EFF3098020E9F00F1B
:1002200040F804ED14BF80F3088880F3098800B516
:1002300004F05AFB5DF804EB4EF0040E704700002A
:100240009C010020940100209801002004ED00E0B2
:1002500020ED00E008ED00E02DE9FE4F804681EA48
:100260000300C00F0C46009021F0004123F0004530
:10027000B8EB0200A94105D24046214690461C46F3
:100280000B46024623F00040104347D0270DC7F32A
:100290000A00C3F30A510290401A019040286BDA19
:1002A000C3F3130040F4801B0098924620B1002352
:1002B000D2EB030A63EB0B0B01985946C0F14002E5
:1002C000504600F036FA06460D4650465946019A09
:1002D00000F04EFA10EB08006141002487EA115249
:1002E00084EAE7731A4340D0009A62B3019A012A64
:1002F0004FEA075215DC001B61EB02014FF0004290
:1003000002EA0752CDE90042001C41F58011324655
:100310002B4600F085FA03B0BDE8F08F4046214639
:10032000F9E7001B61EB0201001C41F58013001886
:100330005B412018A2F5001747EB030140EAD57096
:10034000B6196D4111E06D084FEA360645EAC075F1
:100350004FEA0752001B61EB0201001C41F58011BE
:1003600049084FEA30000019514132462B4603B08C
:10037000BDE8F04F00F045BA00980122400000238C
:10038000D0EB020263EBE073009821464FEAE07481
:10039000B8EB000061EB0401E9E783F000435BE7A1
:1003A00081F0004158E72DE9FE4F81EA030404F093
:1003B000004421F0004100944FF0000B23F0004373
:1003C00050EA01045ED052EA03045BD0C3F30A543E
:1003D000C1F30A552C44A4F2F3340194A0FB025457
:1003E000C1F3130141F48011C3F3130343F48013E9
:1003F00001FB024400FB034E840A970A44EA81543D
:1004000047EA8357A4FB076802958D0A05FB078519
:100410004FEA932C04FB0C542705029D4FEA065823
:1004200047EA1637B5EB08056EEB070C870E920E00
:1004300047EA811742EA8312A7FB0201B6EB0B01E0
:1004400064EB00042B0D43EA0C335E1844EB1C50A4
:10045000DA465146E7FB0201C5F313044FEA0B33BA
:1004600043EA14534FEA0432019C43EA0603A4F121
:100470000C040294009CCDE900B400F0D1F903B063
:10048000BDE8F08F00200146F9E72DE9F04D81EA43
:10049000030404F0004B21F0004514464FF0000A1D
:1004A00023F0004150EA050220D054EA01021DD099
:1004B000C5F30A570246C5F31303C1F31300C1F392
:1004C0000A5640F4801543F48013A7EB0608101B6E
:1004D000D64608F2FD3873EB050002D308F1010897
:1004E00001E092185B41B8F1000F03DA00200146E9
:1004F000BDE8F08D00204FF48011064684460EE0E2
:10050000171B73EB050705D3121B63EB05030643AB
:100510004CEA010C49084FEA300092185B4150EA5E
:100520000107EDD152EA030012D082EA040083EA07
:100530000501084305D0101BAB4106D20122002360
:1005400006E000224FF0004302E06FF0010253107A
:100550001AEB06004CEB085110EB0A0041EB0B01C3
:10056000BDE8F04D00F04DB996230022114600F091
:100570001AB90EB540F2334102910021CDE90011C4
:100580000A460B4600F04CF903B000BDC1F30A5215
:1005900010B5C1F3130140F2FF3341F480119A42C8
:1005A00001DA002010BD40F233439A42A2F23342F6
:1005B00003DC524200F0CCF810BD904010BD00F0BA
:1005C000004230F000400AD0C10D01F56071C0F367
:1005D000160042EA0151C20840071143704700204B
:1005E0000146704730B5041E71F1000404DB4FF082
:1005F0000044404264EB0101141E73F1000405DB6A
:100600001C464FF00043524263EB04038B4208BF89
:10061000824230BD30B5041E71F1000404DB4FF09E
:100620000044404264EB0101141E73F1000405DB39
:100630001C464FF00043524263EB0403994208BF4B
:10064000904230BD01F0004330B421F0004150EA47
:10065000010206D00A0DA2F56072C1F31301002A4F
:1006600002DC30BC00207047440F44EAC104C100E2
:10067000E01830BC00EBC25000F08CB8002801DB61
:10068000C0F10040002901DBC1F100418142704707
:10069000002801DBC0F10040002901DBC1F100416D
:1006A0008842704730B50B460146002020220124C5
:1006B00009E021FA02F59D4205D303FA02F5491B30
:1006C00004FA02F52844151EA2F10102F1DC30BD46
:1006D0002DE9F05F0546002092469B468846064677
:1006E000814640241BE0284641464746224600F00A
:1006F0002FF853465A46C01A914110D31146184656
:10070000224600F016F82D1A67EB01084F462246E4
:100710000120002100F00DF817EB00094E41201ECA
:10072000A4F10104DFDC484631462A464346BDE8D1
:10073000F09F202A04DB203A00FA02F100207047E3
:100740009140C2F1200320FA03F31943904070470F
:10075000202A04DB203A21FA02F00021704721FA16
:1007600002F3D040C2F1200291400843194670477D
:10077000202A06DBCB17203A41FA02F043EAE07365
:1007800006E041FA02F3D040C2F120029140084352
:10079000194670470029A8BF7047401C490008BF90
:1007A00020F00100704710B4B0FA80FC00FA0CF0A1
:1007B00050EA010404BF10BC704749B1CCF12004D9
:1007C00021FA04F411FA0CF118BF01212143084366
:1007D000A3EB0C01CB1D4FEA00614FEA102042BF92
:1007E000002010BC704700EBC35010440029A4BF88
:1007F00010BC7047401C490008BF20F0010010BC2D
:10080000704710B5141E73F1000408DA401C41F162
:10081000000192185B411A4301D120F0010010BD84
:100820002DE9F04D92469B4611B1B1FA81F202E0FA
:10083000B0FA80F220329046FFF77BFF04460F4665
:1008400040EA0A0041EA0B0153465A46084313D0D6
:10085000114653EA010019D0C8F140025046FFF793
:1008600077FF05460E46504659464246FFF761FF60
:10087000084305D0012004E020463946BDE8F08D4C
:100880000020054346EAE0762C4337430A98630587
:10089000E40AA0EB08000022FD0A44EA47540A30AB
:1008A00002D500200146E9E7010510196941DDE99B
:1008B000084500196941BDE8F04DA2E7C1F30A52AD
:1008C000C1F3130140F2FF3341F480119A4202DA7E
:1008D00000200146704740F233439A42A2F233426D
:1008E00002DC5242FFF734BFFFF723BF064C074D2F
:1008F00006E0E06840F0010394E8070098471034F0
:10090000AC42F6D3FFF718FC0C9D00082C9D0008A4
:1009100070B58C1810F8015B15F0070301D110F8C1
:10092000013B2A1106D110F8012B03E010F8016BEE
:1009300001F8016B5B1EF9D12B0705D40023521E71
:100940000DD401F8013BFAE710F8013BCB1A921CD9
:1009500003E013F8015B01F8015B521EF9D5A142D7
:10096000D8D3002070BD10B5FFF7FEFB05F044FBA7
:10097000002010BD00220A12D3430360704721B14A
:10098000826842F00102826003E0826822F0010284
:100990008260704721B1826842F48012826003E075
:1009A000826822F4801282607047014600208A68C3
:1009B00002F004020AB1012000E000207047014665
:1009C000C86C80B2704770B5024600200023002436
:1009D0000B125568CEB205EA060415681D4015B124
:1009E0000CB1012000E0002070BD014600208A68A3
:1009F00002F008020AB1012000E00020704710B5A3
:100A00000023CBB21AB144681C43446002E044683E
:100A10009C43446010BD000030B502460020002316
:100A200050680F4C20400D790C6844EA052420439F
:100A3000506090680B4C2040D1E902542C434D7912
:100A400044EA450420439060D06A20F470000C7C96
:100A5000641EE4B2234340EA0350D06230BD00007C
:100A6000FFFEF0FFFDF7F1FFF0B504460D46002054
:100A70000021092D11DDE068A5F10A0606EB460705
:100A8000072606FA07F18843A5F10A0606EB460693
:100A900003FA06F10843E0600CE0206905EB450726
:100AA000072606FA07F1884305EB450603FA06F127
:100AB00008432061072A0FDA606B561E06EB860793
:100AC0001F2606FA07F18843561E06EB860605FA2E
:100AD00006F10843606322E00D2A0FDA206BD61F6F
:100AE00006EB86071F2606FA07F18843D61F06EB9A
:100AF000860605FA06F10843206310E0E06AA2F1D9
:100B00000D0606EB86071F2606FA07F18843A2F1B9
:100B10000D0606EB860605FA06F10843E062F0BD15
:100B2000816841F008018160704721B1826842F418
:100B3000A002826003E0826822F4A0028260704713
:100B4000816841F0040181607047000008B501210F
:100B5000102002F03DF90220ADF8000000208DF8D1
:100B6000030069460D4800F00BFC0121102002F043
:100B70002FF91020ADF8000000208DF80300694621
:100B8000064800F0FDFB2020ADF8000000208DF8A5
:100B900003006946014800F0F3FB08BD0010014066
:100BA00010B5FFF7D3FF00F001F810BD00B585B018
:100BB0000121480202F00CF94FF4C02000900020FF
:100BC0008DF8040001208DF805004FF4602002909C
:100BD0000020039001208DF8100069463548FFF78A
:100BE0001BFF4FF4004002F0D7F8062301220B212F
:100BF0003048FFF739FF01224FF408712D48FFF705
:100C0000FEFE01212B48FFF7BAFE2A48FFF788FFB6
:100C100000BF2848FFF7E9FE0028FAD12548FFF772
:100C20008FFF00BF2348FFF7C0FE0028FAD1012143
:100C30002048FFF77AFF0121880202F0C9F84FF43B
:100C4000C020009000208DF804008DF805004FF4BE
:100C5000602002900020039001208DF8100069466A
:100C60001548FFF7D9FE4FF4004002F095F8012136
:100C70001148FFF78FFE01224FF408710E48FFF76D
:100C8000BEFE01210C48FFF77AFE0B48FFF748FF34
:100C900000BF0948FFF7A9FE0028FAD10648FFF770
:100CA0004FFF00BF0448FFF780FE0028FAD105B0CF
:100CB00000BD000000240140002801402DE9F04F54
:100CC00089B08E4804880088401C1FFA80F90420EF
:100CD0000890611E8A4A32F81100FFF74AFC8246EA
:100CE0000022884BFFF7D1FB05464FF06632864B5A
:100CF000FFF759FB0746FFF7A5FC0790804931F83D
:100D00001400FFF736FC054600227E4BFFF7BDFBC3
:100D100082464FF066327C4BFFF745FB0746FFF7F4
:100D200091FC06902AE0601E84B2611E744A32F87B
:100D30001100FFF71EFC82460022724BFFF7A5FB55
:100D400005464FF06632704BFFF72DFB0746FFF765
:100D500079FC07906A4931F81400FFF70AFC07464E
:100D60000022684BFFF791FB05464FF06632664B59
:100D7000FFF719FB8246FFF765FC0690DDE90610D8
:100D800000F096FB08B9012CCDDC5D4931F8190063
:100D9000FFF7EFFB824600225A4BFFF776FB054632
:100DA0004FF06632584BFFF7FEFA0746FFF74AFC52
:100DB0000790534A09F1010132F81100FFF7D9FBFE
:100DC000824600224F4BFFF760FB05464FF066322C
:100DD0004D4BFFF7E8FA0746FFF734FC06902DE08D
:100DE00009F101001FFA80F9454931F81900FFF7B0
:100DF000C0FB07460022434BFFF747FB82464FF0FC
:100E00006632414BFFF7CFFA0546FFF71BFC079010
:100E10003B4A09F1010132F81100FFF7AAFB07462E
:100E20000022384BFFF731FB05464FF06632364B58
:100E3000FFF7B9FA8246FFF705FC0690DDE90610D8
:100E400000F036FB10B9B9F5957FC9DDA9EB0401B7
:100E50002EA003F019FFA9EB0400801CB0F5957FCC
:100E600049DCA9EB0400401C2C49098808442B49A3
:100E700008802B480078401CC1B2294801700898AE
:100E8000814235DB00202649087024480088801004
:100E90002249088023480068FFF76BFB05460E4691
:100EA0001E480088FFF760FB0190FFF788FB0746AC
:100EB0002A463346FFF777FA00221B4BCDE90201A1
:100EC000FFF7E3FA82460022184BFFF7DEFA0246EC
:100ED0000B46CDE9040100201549FFF7D6FA154A63
:100EE00003C2002002F098F900200C49088003E0BA
:100EF00009B0BDE8F08FFBE700BFF9E74000002034
:100F0000A40100200000694066660A4057617665CA
:100F10004C656E74683A2025640A0000FA000020CF
:100F2000F8000020E80000200000494000408F4009
:100F30000000F03FF000002010B5012000F094F810
:100F400018B103F01FFE03F02DFE012000F086F81B
:100F500010BD10B54FF4005000F086F84FF400506B
:100F600000F07CF810BD000070B564246425642690
:100F7000042000F079F8002860D00BE005E000BF05
:100F8000301EA6F10101CEB2FADC281EA5F1010146
:100F9000CDB2F4DC201EA4F10101CCB2EEDC01F0F4
:100FA00091FFB0B903F0EEFD012225492548006804
:100FB00004F0AEF805E000BF281EA5F10101CDB296
:100FC000FADC201EA4F10101CCB2F4DC03F0EAFD4E
:100FD00031E003F0D7FD1C48007898B901201A4988
:100FE00008701A4891F9001050F82100184908605B
:100FF000052002F011F90020164908700120164959
:10100000086016E010480078012812D100200E492F
:1010100008700E4891F9001050F821000C49086042
:10102000052002F0F9F801200A4908700A49091F51
:10103000086003F0B7FD042000F010F870BD000058
:101040002E00002068000020D00000208400002036
:10105000D8000020FC000020140C01400149086069
:101060007047000014040140014600200022074B95
:101070001B6803EA0102054B14331B680B4013B1D4
:101080000AB1012000E00020704700000004014088
:10109000002123498279002A3AD00A46126803685F
:1010A0009A430B461A600A1D126803689A430B1D87
:1010B0001A60027911440A6803681A430A60184AE0
:1010C0000832126803689A43154B08331A601A1DD8
:1010D000126803689A43124B0C331A604279102A43
:1010E0000ED11A1F126803681A430D4B08331A6099
:1010F0001A1D126803681A43094B0C331A600DE07D
:101100000749427911440A6803681A430A6005E0F6
:10111000027911440A6803689A430A607047000024
:10112000000401400EB500F04BF80121042001F04D
:101130004FFE0121102001F04BFE0120ADF8080008
:1011400004208DF80B0002A91B4800F019F94FF498
:101150000050ADF8080004208DF80B0002A91748D4
:1011600000F00EF90121084601F032FE0021084688
:1011700000F0E6F80D21022000F0E2F801200090D6
:1011800000208DF8040008208DF8050001208DF85E
:1011900006006846FFF77CFF4FF4005000900020E7
:1011A0008DF804000C208DF8050001208DF8060054
:1011B0006846FFF76DFF0EBD0008014000100140BA
:1011C00008B54FF4C06001F03DF806208DF800002E
:1011D00001208DF801008DF802008DF803006846AB
:1011E00000F0F8FF28208DF8000001208DF80100A4
:1011F0008DF80200684600F0EDFF08BD08B54FF419
:10120000C06001F01FF808208DF8000001208DF863
:1012100001008DF802008DF80300684600F0DAFF47
:1012200008BD000051B18200A2F1C042126842F034
:1012300001038200A2F1C042136009E08200A2F122
:10124000C0421268034B1A408300A3F1C0431A60E6
:1012500070470000FEFF0F00D0E901121143C26881
:101260001143026911434269114382691143C26902
:101270001143026A1143426A1143826A1143C26AEE
:101280001143026B114302689200A2F1C042116047
:10129000816808290BD101688900A1F1C041096862
:1012A00041F0400201688900A1F1C0410A60416B30
:1012B0000968426B526841EA0211426B926841EA46
:1012C0000221426B928941EA0241426B128A41EA51
:1012D0000251426B127D41EA0261426B92691143F5
:1012E0000268521C9200A2F1C0421160C16AB1F5BD
:1012F000804F1BD1816B0968826B526841EA0211F1
:10130000826B926841EA0221826B128A41EA0251A1
:10131000826B127D41EA0261826B9269114302681D
:101320009200A2F1C042C2F8041107E06FF07042CF
:1013300001688900A1F1C041C1F804217047000093
:1013400030B500228B071C0F0F2303FA04F20B4B5E
:101350008C1053F824309343084C8D1044F82530FA
:1013600023468C1053F824308C07240F00FA04F421
:101370002343024C8D1044F8253030BD0800014055
:101380002DE9F0410246002500260020002300241C
:10139000002791F803C00CF00F0591F803C00CF082
:1013A000100CBCF1000F03D091F802C04CEA050507
:1013B00091F800C0BCF1000F31D0146800202BE080
:1013C0004FF0010C0CFA00F3B1F800C00CEA030670
:1013D0009E4220D183004FF00F0C0CFA03F7BC4360
:1013E00005FA03FC4CEA040491F803C0BCF1280F91
:1013F00006D14FF0010C0CFA00FCC2F814C00AE050
:1014000091F803C0BCF1480F05D14FF0010C0CFA64
:1014100000FCC2F810C0401C0828D1D31460B1F8F9
:1014200000C0BCF1FF0F34DD546800202EE000F155
:10143000080C4FF0010808FA0CF3B1F800C00CEAF0
:1014400003069E4221D183004FF00F0C0CFA03F7E4
:10145000BC4305FA03FC4CEA040491F803C0BCF158
:10146000280F05D100F1080C08FA0CF8C2F8148016
:1014700091F803C0BCF1480F07D100F1080C4FF000
:10148000010808FA0CF8C2F81080401C0828CED3D6
:101490005460BDE8F0810246002093680B400BB118
:1014A000012000E0002070474161704701617047F2
:1014B00070B505460C461248007868B911480168B5
:1014C0002846FFF7E5F819D20E4801682046FFF7D5
:1014D000D5F813D8012070BD0948007801280DD136
:1014E000084801682046FFF7D3F807D80548016887
:1014F0002846FFF7C3F801D20120ECE70020EAE715
:10150000D1000020DC0000201FB5642003900120E2
:1015100002904FF0000AE0E04FF0000A21E000BF27
:101520004FF408716D48FFF74EFA0028F8D06B4869
:10153000FFF745FA0090FFF71CF880460022684B41
:10154000FEF7A3FF06464FF06632664BFEF72BFF11
:101550000446FFF777F801904FF408715F48FFF7F2
:1015600009FA0398411EC9B203910028D7D15E48F9
:10157000007800284AD000BF00BF4FF408715748D8
:10158000FFF721FA0028F8D05448FFF718FA009026
:10159000FEF7EFFF06460022514BFEF776FF0446AA
:1015A0004FF066324F4BFEF7FEFE8046FFF74AF8DB
:1015B00001904FF408714948FFF7DCF900BF4FF480
:1015C00008714648FFF7FFF90028F8D04348FFF7B5
:1015D000F6F90090FEF7CDFF04460022404BFEF7DF
:1015E00054FF06464FF066323E4BFEF7DCFE804667
:1015F000FFF728F883464FF408713848FFF7BAF927
:1016000059460198FFF754FF0128B5D141E000BFCA
:101610004FF408713148FFF7D6F90128F8D12F4867
:10162000FFF7CDF9C62100FB01F4E01704EB1050E1
:1016300000132E4921F81A002D4800683221B0FB12
:10164000F1F0C01F80B12A480068B0FBF1F0C01F64
:10165000B0F57A7F08D826480068B0FBF1F0C41FC7
:10166000204603F067FA0BE0214800683221B0FB06
:10167000F1F04FF47A71B0FBF1F4204604F07DF8FC
:101680004FF408711548FFF775F90AF101001FFAC8
:1016900080FABAF5967FBADB13480078022816D193
:1016A000012202A91348006803F032FD002012490C
:1016B0000870124891F9001050F821001049086094
:1016C000002001F0A9FD0F48006804F061F9012233
:1016D00002A90848006803F01BFD1DE70024014033
:1016E0000000B04066660A40D2000020A40100203D
:1016F000E80000206C000020D000002084000020C2
:10170000D80000207800002010B500240623012214
:101710000E210D48FFF7A8F901210B48FFF705FA44
:1017200000BF4FF408710848FFF74DF90128F8D1C0
:101730000548FFF744F904464FF408710248FFF7E3
:1017400019F9204610BD00000028014010B5002402
:10175000062301220F210D48FFF786F901210B48CE
:10176000FFF7E3F900BF4FF408710848FFF72BF9C2
:101770000128F8D10548FFF722F904464FF4087113
:101780000248FFF7F7F8204610BD0000002801408E
:1017900010B504462CB14FF480510548FFF784FE84
:1017A00004E04FF480510248FFF780FE10BD0000B6
:1017B000001401402DE9F04106460F4614461D462F
:1017C0002B4622463946304600F0C0FA04FB05F0AD
:1017D0000249098800F06EF9BDE8F0813E00002062
:1017E00001B502E00098401E009000980028F9D151
:1017F00008BD00002DE9F04F804689461646A6F147
:1018000020001FFA80FA1E49096889881C4A12685C
:10181000D28801FB02F0C11700EB5171C1F3C70779
:101820001748006800680AFB070B15480068C38862
:101830001348006882884946404600F087FA2C2009
:1018400000F002FC002416E0002510E01BF8040064
:1018500080212941084020B10A48008800F0F8FBA7
:1018600003E00948008800F0F3FB681CC5B2082DAE
:10187000ECDB601CC4B2BC42E6DBBDE8F08F0000CC
:10188000380000203C0000203E00002070B50546D6
:101890000E46144624E028461349096889880844FE
:1018A00012490988884205DD00250F480068C08874
:1018B000304486B230460C490968C98808440C494E
:1018C0000988884201DD0025002622783146284615
:1018D000FFF790FF641C044800688088284485B2A4
:1018E00020780028D7D170BD3800002030000020BB
:1018F000320000202DE9FF4F85B082468B46002044
:10190000029001900798A0EB0A050898A0EB0B063F
:10191000CDF810A0CDF80CB0002D02DD4FF001087D
:1019200006E015B94FF0000802E04FF0FF386D42B5
:10193000002E02DD4FF0010906E016B94FF0000954
:1019400002E04FF0FF397642B54201DD2C4600E05F
:101950003446002729E0129897FBF0F100FB117143
:1019600000EBD072B1EB620F03DCDDE9031000F095
:101970004FFB02982844029001983044019002984D
:10198000A04206DD0298001B02900498404480B2F9
:1019900004900198A04206DD0198001B0190039875
:1019A000484480B20390781C87B2601C8742D2DD25
:1019B00009B0BDE8F08F2DE9FF4F83B081464FF0AD
:1019C000000AD3460598A0EB090504990698461A23
:1019D000CDF8049004980090002D01DD012705E06A
:1019E0000DB9002702E04FF0FF376D42002E02DDF7
:1019F0004FF0010806E016B94FF0000802E04FF082
:101A0000FF387642B54201DD2C4600E03446002026
:101A1000029019E0DDE9001000F0FAFAAA44B3449C
:101A2000A24505DDAAEB040A0198384480B2019072
:101A3000A34505DDABEB040B0098404480B2009059
:101A40000298401C80B20290611C02988842E1DD3D
:101A500007B0BDE8F08F00B597B00121080201F092
:101A6000A7F9012001900420039080060790002030
:101A700002900490059006900890099008200A9022
:101A800010200B9000200C900E900F9010904FF4AF
:101A900080501190002012901390149001A815907E
:101AA000169008A8FFF7D8FB01210020FFF7BAFB2A
:101AB00017B000BD10B502460B4600242C2000F0E4
:101AC000C3FA00BF03E0184600F0C2FA641C944257
:101AD000F9D310BD08B50121602001F079F9032088
:101AE0008DF8020018208DF803004FF48040ADF807
:101AF000000069465B48FFF743FC4FF40040ADF837
:101B0000000069465748FFF73BFC0120ADF8000094
:101B100069465448FFF734FC0220ADF800006946DE
:101B20005048FFF72DFC8020ADF8000069464E4874
:101B3000FFF726FC4FF48070ADF8000069464A4874
:101B4000FFF71EFC4FF40070ADF8000069464648F0
:101B5000FFF716FC4FF48060ADF80000694642487C
:101B6000FFF70EFC4FF40060ADF8000069463E48F8
:101B7000FFF706FC4FF48050ADF8000069463A4884
:101B8000FFF7FEFB4FF40050ADF800006946364801
:101B9000FFF7F6FB4FF48040ADF80000694632488D
:101BA000FFF7EEFB4FF40040ADF8000069462E4809
:101BB000FFF7E6FB4FF48070ADF800006946294856
:101BC000FFF7DEFB4FF40070ADF8000069462548D2
:101BD000FFF7D6FB4FF48060ADF80000694621485E
:101BE000FFF7CEFB03208DF8020018208DF80300CC
:101BF0001020ADF8000069461A48FFF7C1FB20200D
:101C0000ADF8000069461748FFF7BAFB8020ADF831
:101C1000000069461348FFF7B3FB4FF40060ADF8CE
:101C2000000069460F48FFF7ABFB10208DF803005A
:101C300003208DF802000220ADF8000069460A4832
:101C4000FFF79EFB10208DF8030003208DF80200A3
:101C50004FF48050ADF8000069460248FFF790FB52
:101C600008BD0000001401400018014000B5024604
:101C7000072A00DD00BD28480270104602EBD07133
:101C80004910A2EB410139B9F020244908804FF4F2
:101C9000A0702349088006E04FF4A0701F49088017
:101CA000F0201F490880362000F0CEF9082141EAD3
:101CB000421000F0CDF92A2000F0C6F9002000F013
:101CC000C7F9002000F0C4F914490988491EC1F37E
:101CD000072000F0BDF911490978491EC8B200F08B
:101CE000B7F92B2000F0B0F9002000F0B1F9002086
:101CF00000F0AEF90A490988491EC1F3072000F037
:101D0000A7F907490978491EC8B200F0A1F92C20AB
:101D100000F09AF900BFADE7340000203000002049
:101D20003200002010B5FFF7D5FEFFF794FE01202A
:101D3000FFF72EFD00F04EF900F034F8024800786D
:101D4000FFF794FF10BD00003400002030B50446BA
:101D50000D462A2000F078F9201200F079F9E0B25F
:101D600000F076F9A118491EC1F30F2000F070F9B8
:101D7000A118491EC8B200F06BF92B2000F064F9DD
:101D8000281200F065F9E8B200F062F9E918491E7E
:101D9000C1F30F2000F05CF9E918491EC8B200F049
:101DA00057F930BD10B5CF2000F04EF9002000F0FB
:101DB0004FF9812000F04CF9302000F049F9ED2076
:101DC00000F042F9642000F043F9032000F040F9EC
:101DD000122000F03DF9812000F03AF9E82000F0EF
:101DE00033F9852000F034F9102000F031F9782023
:101DF00000F02EF9CB2000F027F9392000F028F967
:101E00002C2000F025F9002000F022F9342000F009
:101E10001FF9022000F01CF9F72000F015F920202E
:101E200000F016F9EA2000F00FF9002000F010F998
:101E3000002000F00DF9B12000F006F9002000F0BC
:101E400007F91B2000F004F9B62000F0FDF80A2085
:101E500000F0FEF8A22000F0FBF8C02000F0F4F83B
:101E6000352000F0F5F8C12000F0EEF8112000F068
:101E7000EFF8C52000F0E8F8452000F0E9F845202B
:101E800000F0E6F8C72000F0DFF8A22000F0E0F84C
:101E9000F22000F0D9F8002000F0DAF8262000F057
:101EA000D3F8012000F0D4F8E02000F0CDF80F20A6
:101EB00000F0CEF8262000F0CBF8242000F0C8F87F
:101EC0000B2000F0C5F80E2000F0C2F8092000F049
:101ED000BFF8542000F0BCF8A82000F0B9F8462064
:101EE00000F0B6F80C2000F0B3F8172000F0B0F8BE
:101EF000092000F0ADF80F2000F0AAF8072000F04C
:101F0000A7F8002000F0A4F8E12000F09DF80020E0
:101F100000F09EF8192000F09BF81B2000F098F8C4
:101F2000042000F095F8102000F092F8072000F04F
:101F30008FF82A2000F08CF8472000F089F839202B
:101F400000F086F8032000F083F8062000F080F807
:101F5000062000F07DF8302000F07AF8382000F0FC
:101F600077F80F2000F074F8362000F06DF8C820E4
:101F700000F06EF82A2000F067F8002000F068F802
:101F8000002000F065F8002000F062F8EF2000F07B
:101F90005FF82B2000F058F8002000F059F80020DE
:101FA00000F056F8012000F053F83F2000F050F800
:101FB0003A2000F049F8552000F04AF8112000F0CE
:101FC00043F80348FFF70CFC292000F03DF810BD52
:101FD000FCBF020010B502210748FFF765FA40F682
:101FE000FF20FFF7FDFB02210348FFF75FFA40F6F1
:101FF000FF20FFF7F5FB10BD0018014030B5044687
:102000000D4601231A4629462046FFF79FFE30BDA4
:1020100070B505460C460948008885420CDA084828
:102020000088844208DA21462846FFF7E7FF054882
:1020300001880120FFF73EFD70BD00003000002048
:10204000320000203C0000204FF0C0410880704763
:102050000149088070470000000002601CB50024A0
:10206000002001900520009054E005200090831F7F
:10207000012201A92848006802F0CCFF0446002C88
:1020800048D19DF80400012844D139E000F027FF31
:1020900005280ADA4FF4FA7003F06FFB00F01FFF17
:1020A000052810DA012000900DE000F018FFFA2852
:1020B00009DD4FF4FA7003F060FB00F010FFFA281E
:1020C00001DD0220009000F005FF05280ADA4FF438
:1020D000FA7003F052FB00F0FDFE052810DA032031
:1020E00000900DE000F0F6FEFA2809DD4FF4FA70DA
:1020F00003F043FB00F0EEFEFA2801DD042000901F
:102100009DF800000428C1DC0122694603480068EC
:1021100002F0FEFFA9E70000700000206800002028
:10212000014800687047000038000020024A108013
:10213000024A1180704700003C0000203E00002051
:1021400001490880704700003C00002008B50121CB
:10215000082000F03DFE2020ADF8000010208DF892
:10216000030003208DF8020069460F48FFF708F9C5
:102170000120ADF8000069460B48FFF701F9022085
:10218000ADF8000069460848FFF7FAF82021064834
:10219000FFF78CF901210448FFF788F90221024872
:1021A000FFF784F908BD0000000C014008B54FF4AA
:1021B000A06000F047F825208DF8000001208DF880
:1021C00001008DF802008DF80300684600F002F867
:1021D00008BD000070B5002100230F22C47804B3AD
:1021E000154C246804F4E064C4F5E064210AC1F1EC
:1021F0000403CA40447804FA03F18478144021436C
:1022000009010E4C0678A155047804F01F0501243D
:10221000AC4005786D11AD0005F1E025C5F8004131
:1022200009E0047804F01F050124AC40044D067851
:10223000761145F8264070BD0CED00E000E400E0AA
:1022400080E100E002490143024A1160704700004A
:102250000000FA050CED00E00EB5FEF7CFFF0121FE
:10226000042000F0B5FD0420ADF8080048208DF8EA
:102270000B0002A90C48FFF783F80121084600F083
:10228000A7FD02210020FFF75BF80420009000204A
:102290008DF804000C208DF8050001208DF8060053
:1022A0006846FEF7F5FE0EBD0008014000B58BB094
:1022B00008200A900A20099000214FF6FF70FFF7CE
:1022C00035FFFE480088089000EBD070FC49098873
:1022D000A1EB600080B20690FA480088079000EBFE
:1022E000D070F9490988A1EB600080B20590F348ED
:1022F0000388F4480288DDE90501FFF75BFAEF483F
:102300000088089000EBD070ED49098801EB60006F
:1023100080B20490EB480088079000EBD070EA4947
:102320000988A1EB600080B20390E4480088069021
:1023300000EBD070E2490988A1EB600080B2029006
:10234000E0480088059000EBD070DF490988A1EBD8
:10235000600080B2019002A90EC9FFF72CFB0A9819
:102360000090D6480088089000EBD070D4490988C6
:1023700001EB600080B20690D0480088079000EB27
:10238000D070CF490988A1EB600080B20490CE489C
:102390000088643880B20590CB480088643880B2E9
:1023A000039004A90EC9FFF7A5FA0A980090C34844
:1023B0000088089000EBD070C149098801EB6000EB
:1023C00080B20690BD480088079000EBD070BC49F1
:1023D0000988A1EB600080B20490BB4800883238C5
:1023E00080B20590B8480088323880B2039004A9C2
:1023F0000EC9FFF77FFA0A980090B048008808904D
:1024000000EBD070AE49098801EB600080B2069005
:10241000AA480088079000EBD0704110A8480088B7
:10242000401A80B20590A84802880088DDE90513AB
:10243000FFF760FA0A980090A0480088089000EB27
:10244000D0709F49098801EB600080B206909B48DC
:102450000088079000EBD07099490988A1EB6000D3
:1024600080B2049098480088323080B20590964837
:102470000088323080B2039004A90EC9FFF73AFAFF
:102480000A9800908D480088089000EBD0708C4925
:10249000098801EB600080B20690884800880790A8
:1024A00000EBD07086490988A1EB600080B20490EF
:1024B00085480088643080B2059083480088643085
:1024C00080B2039004A90EC9FFF714FA7B48008874
:1024D000089000EBD0707A49098801EB600080B267
:1024E000049078480088079000EBD07076490988FE
:1024F00001EB600080B2039070480088069000EB0A
:10250000D0706F490988A1EB600080B202906D48DD
:102510000088059000EBD0706B49098801EB6000E2
:1025200080B2019002A90EC9FFF745FA0A980090FF
:1025300064480088089000EBD0706349098801EB7B
:10254000600080B206905F480088079000EBD07072
:102550005D490988A1EB600080B205905848038866
:102560000188DDE90502FFF7C5F9544800880890A5
:1025700000EBD07052490988A1EB600080B2049052
:1025800050480088079000EBD07041104E480088FA
:10259000411A0998084480B2039048480088069080
:1025A00000EBD07046490988A1EB600080B2029030
:1025B00044480088059000EBD07043490988A1EB9E
:1025C000600080B2019002A90EC9FFF7F4F93B4800
:1025D0000088089000EBD07039490988A1EB6000B1
:1025E00080B204900998079000EBD07041103648F3
:1025F00000886438084480B2039030480088069010
:1026000000EBD0702E490988A1EB600080B20290E7
:102610000998059000EBD07041102B480088643871
:10262000401A80B2019002A90EC9FFF7C4F92348ED
:102630000088089000EBD07021490988A1EB600068
:1026400080B204900998079000EBD07041101E48AA
:1026500000883238084480B20390184800880690F9
:1026600000EBD07016490988A1EB600080B202909F
:102670000998059000EBD07041101348008832385B
:10268000401A80B2019002A90EC9FFF794F90B48D5
:102690000088089000EBD07009490988A1EB600020
:1026A00080B204900998079000EBD0700649098821
:1026B00001EB600080B20390004807E04400002076
:1026C00042000020460000204000002000880690C4
:1026D00000EBD070FC490988A1EB600080B2029049
:1026E0000998059000EBD070F8490988A1EB6000CB
:1026F00080B2019002A90EC9FFF75DF9F448008885
:10270000089000EBD070F0490988A1EB600080B21E
:1027100004900998079000EBD0704110EB480088B6
:102720003230084480B20390E9480088069000EBFC
:10273000D070E5490988A1EB600080B20290099849
:10274000059000EBD0704110E04800883230401A0C
:1027500080B2019002A90EC9FFF72DF9DC4800886C
:10276000089000EBD070D8490988A1EB600080B2D6
:1027700004900998079000EBD0704110D34800886E
:102780006430084480B20390D1480088069000EB82
:10279000D0704110CC480088401A80B2029009984D
:1027A000059000EBD0704110C84800886430401A92
:1027B00080B2019002A90EC9FFF7FDF8C448008855
:1027C000089000EBD070C0490988A1EB600080B28E
:1027D0000490C0480088079000EBD070BB4909887E
:1027E00001EB60010998081A80B20390B84800888C
:1027F000069000EBD0704110B3480088401A80B2B8
:102800000290B4480088059000EBD070AF49098869
:1028100001EB600080B2019002A90EC9FFF7CBF86E
:10282000AB480088089000EBD070A749098801EBFD
:10283000600080B20490A7480088079000EBD07039
:10284000A2490988A1EB60010998084480B203906D
:102850009F480088069000EBD0709B49098801EBE7
:10286000600080B202909B480088059000EBD07019
:1028700096490988A1EB600080B2019002A90EC9B7
:10288000FFF799F892480088089000EBD0708E49C5
:10289000098801EB600080B204900998079000EB72
:1028A000D0704110894800886438084480B2039091
:1028B00087480088069000EBD0708349098801EBB7
:1028C000600080B202900998059000EBD070411032
:1028D0007E4800886438401A80B2019002A90EC96F
:1028E000FFF769F87A480088089000EBD0707649C5
:1028F000098801EB600080B204900998079000EB12
:10290000D0704110714800883238084480B203907A
:102910006F480088069000EBD07041106A4800882C
:10292000084480B202900998059000EBD0704110E5
:10293000664800883238401A80B2019002A90EC958
:10294000FFF739F862480088089000EBD0705E49C4
:10295000098801EB600080B204900998079000EBB1
:10296000D0705A49098801EB600080B20390584842
:102970000088069000EBD0705349098801EB600095
:1029800080B202900998059000EBD0704F490988F9
:10299000A1EB600080B2019002A90EC9FFF70BF80D
:1029A0004B480088089000EBD0704749098801EB3C
:1029B000600080B204900998079000EBD07041103D
:1029C000424800883230084480B203904048008872
:1029D000069000EBD0703C49098801EB600080B2A2
:1029E00002900998059000EBD0704110374800889C
:1029F0003230401A80B2019002A90EC9FEF7DBFF07
:102A000033480088089000EBD0702F49098801EB0B
:102A1000600080B204900998079000EBD0704110DC
:102A20002A4800886430084480B20390284800880F
:102A3000069000EBD0702449098801EB600080B259
:102A400002900998059000EBD07041101F48008853
:102A50006430401A80B2019002A90EC9FEF7ABFFA4
:102A60001B480088089000EBD0701749098801EBDB
:102A7000600080B2049017480088079000EBD07087
:102A80001249098801EB60010998081A80B2039085
:102A90000F480088069000EBD0700B49098801EBC5
:102AA000600080B202900B480088059000EBD07067
:102AB0000649098801EB600080B2019002A90EC9A5
:102AC000FEF779FF0BB000BD42000020400000205F
:102AD000440000204600002008B50025002000909A
:102AE0004BE14FF0FF3301226946A448006802F031
:102AF00091FA0546002D7CD19DF800000128FAD1FD
:102B00009F4800780028F6D19E4A168806EBD672B8
:102B10009D4B1B88A3EB6202521C91B29B4A178803
:102B200007EBD7729A4B1B88A3EB6202521C90B240
:102B300063233122FEF73EFE924A168806EBD672D8
:102B4000914B1B88A3EB6202521C91B2904A1288EF
:102B5000633A90B263233122FEF72CFE894A16882D
:102B600006EBD672884B1B88A3EB6202521C91B213
:102B7000874A1288313A90B263233122FEF71AFE57
:102B8000804A168806EBD6727F4B1B88A3EB620245
:102B9000521C91B27E4A1288521C90B26323312299
:102BA000FEF708FE774A168806EBD672764B1B882E
:102BB000A3EB6202521C91B2754A1288333290B272
:102BC00063233122FEF7F6FD6E4A168806EBD672B5
:102BD0006D4B1B88A3EB6202521C91B26C4A1288A7
:102BE000653290B263233122FEF7E4FD674A16880E
:102BF00000E0C0E006EBD672654B1B88A3EB6202D7
:102C0000521C90B2604A1288521C91B26323312246
:102C1000FEF7D0FD5C4A1288521C91B25C4A1288C1
:102C2000633A90B263233122FEF7C4FD564A1288FC
:102C3000521C91B2564A1288313A90B26323312223
:102C4000FEF7B8FD504A1288521C91B2504A1288C1
:102C5000521C90B263233122FEF7ACFD4A4A12881F
:102C6000521C91B24A4A1288333290B26323312205
:102C7000FEF7A0FD444A1288521C91B2444A1288C1
:102C8000653290B263233122FEF794FD00246DE09B
:102C9000322094FBF0F100FB1140002864D0601C4E
:102CA000322190FBF1F201FB1200E8B3394830F811
:102CB0001400642858D03749601C31F8100064288B
:102CC00052D04FF6FF70FFF73BFADFF8B8C0BCF800
:102CD000006006EBD67CDFF8B0A0BAF800A0AAEB43
:102CE0006C0ADFF8B0B004F1010C3BF81CC0D4440E
:102CF0000CF1010C1FFA8CF3DFF890C0BCF80070E7
:102D000007EBD77CDFF888A0BAF800A0AAEB6C0C20
:102D1000A4440CF1010C1FFA8CF2DFF868C0BCF877
:102D2000008008EBD87C00E01EE0DFF85CA0BAF879
:102D300000A0AAEB6C0CDA463AF814A0D4440CF1CB
:102D4000010C1FFA8CF1DFF844C0BCF8009009EBCD
:102D5000D97CDFF83CA0BAF800A0AAEB6C0CA44424
:102D60001FFA8CF0FEF727FE601C84B2B4F5957F45
:102D70008EDDFDF7A3FF00200090B2E66C0000207E
:102D8000FC000020440000204200002046000020FB
:102D900040000020A401002001460020034A5068A2
:102DA00020F440400843506070470000001002408B
:102DB00029B1064A52690243044B5A6104E0034AAE
:102DC00052698243014B5A61704700000010024073
:102DD00029B1064A92690243044B9A6104E0034A0E
:102DE00092698243014B9A617047000000100240D3
:102DF00030B500210022002400232D4D6D6805F020
:102E00000C0121B1042905D0082923D105E0294D61
:102E1000056022E0274D05601FE0254D6D6805F433
:102E20007012234D6D6805F48034022505EB924243
:102E30001CB9214D554305600BE01D4D6D6805F42F
:102E400000351DB11C4D5543056002E0194D554339
:102E5000056002E0174D056000BF00BF144D6D68AE
:102E600005F0F0010909154D6B5C0568DD40456012
:102E70000F4D6D6805F4E061090A104D6B5C456803
:102E8000DD4085600A4D6D6805F46051C90A0B4D3F
:102E90006B5C4568DD40C560054D6D6805F44041DB
:102EA000890B074D6B5CC568B5FBF3F5056130BD5B
:102EB0000010024000127A0000093D0014000020BA
:102EC0002400002010B504210148FEF7E4FA10BDEB
:102ED0000008014010B5FEF717FCC0B210BD10B5D8
:102EE000FEF734FCC0B210BD1CB500230A2201213C
:102EF00031A002F041F83549086000230122114653
:102F000033A002F039F83849086000230122114645
:102F100036A002F031F839490860142002210B0272
:102F20000022CDE90010364936A002F0FEFB3749F9
:102F300008600846006818B10846006802F012FDF3
:102F4000142002210B020022CDE90010304931A0EB
:102F500002F0EBFB314908600846006818B10846EA
:102F6000006802F0FFFC142003214FF400730022DC
:102F7000CDE900102A492BA002F0D7FB2B490860AD
:102F80000846006818B10846006802F0EBFC1420FF
:102F900003214FF400730022CDE90010244925A03D
:102FA00002F0C3FB264908600846006818B10846CD
:102FB000006802F0D7FC1CBD73657474696E675FAE
:102FC000646174615F71756575650000680000205B
:102FD000676574776176655F7374617475735F712B
:102FE00075657565000000006C0000206B65795FF9
:102FF0007363616E5F717565756500007000002018
:103000002D31000853657474696E670074000020E8
:103010005D2000084B65795363616E0080000020DD
:10302000091500084765745761766500780000202F
:10303000D92A0008506C6F74576176650000000053
:103040007C00002010B500F001F810BD0CB5002088
:10305000019000903348006840F4803031490860A6
:1030600000BF3048006800F4003000900198401C18
:103070000190009818B90198B0F5A06FF1D12948D6
:10308000006800F4003010B10120009001E0002041
:1030900000900098012843D12348006840F01000B8
:1030A000214908600846006820F0030008600846CF
:1030B000006840F0020008601A48406819494860FA
:1030C0000846406848600846406840F480604860B0
:1030D0000846406820F47C1048600846406840F488
:1030E000E81048600846006840F08070086000BF43
:1030F0000C48006800F000700028F9D009484068CA
:1031000020F00300074948600846406840F002008C
:10311000486000BF0348406800F00C000828F9D15F
:103120000CBD000000100240002002401CB500252C
:103130000520019000240120009064E04FF0FF334F
:10314000012201A93048006801F064FF0546002D06
:1031500059D19DF80400002855D101202B49086061
:103160002020091D0860052001903EE001226946EB
:103170002748006801F0CCFF054641F28833012260
:1031800001A92148006801F045FF05466DBB9DF887
:103190000400012806D002280CD0032813D00428EC
:1031A00021D118E00121204600F07CF9204600F0F2
:1031B00033F819E04FF0FF31204600F073F9204654
:1031C00000F02AF810E0012C04DD601EC4B2204695
:1031D00000F022F808E0042C04DA601CC4B2204697
:1031E00000F01AF800E000BF00BF9DF804000028BE
:1031F000BCD108480078012802D10449091D0860A3
:1032000020200249086099E768000020100C014066
:1032100070000020D00000202DE9F0479AB006464B
:103220000A254FF0070932241E236A0100210846AF
:10323000FEF7C0FA0022894B894903C9FDF7D2F98C
:1032400010D20022874B864903C9FDF7ACF8074628
:10325000FDF79CF91FFA80FA524683A101A800F0FD
:1032600027FB05E07E4882A10CC801A800F020FBE6
:10327000284601AA4946FEF709FB7F480068FDF78A
:103280009EF907463A460B467CA101A800F010FBC8
:10329000611901F1140001AA4946FEF7F7FA05EB9E
:1032A000440101F10F0077490A684946FEF7EEFA3A
:1032B00004EB4401481974490A684946FEF7E6FAE6
:1032C00072480068B0F57A7F06D2704870A1026833
:1032D00001A800F0EDFA0AE06C4800684FF47A713A
:1032E000B0FBF1F73A466CA101A800F0E1FA05EB5A
:1032F000840001AA4946FEF7C9FA04EB8401481983
:1033000067490A684946FEF7C1FA062E7ED2DFE811
:1033100006F003042D4C6A9F9CE0FEF701FFC7886E
:1033200004FB065188B23B4622464946FEF742FA64
:103330004FF6FF710020FEF7F9FE4F480068FDF7D9
:103340003EF907463A460B464CA101A800F0B0FAF8
:1033500004FB0651143188B201AA4946FEF796FAD9
:1033600000214FF6FF70FEF7E1FE73E0FEF7D8FE96
:10337000C78804FB065188B23B4622464946FEF701
:1033800019FA4FF6FF710020FEF7D0FE04FB06513C
:103390000F3188B23B490A684946FEF777FA0021A7
:1033A0004FF6FF70FEF7C2FE54E0FEF7B9FEC78885
:1033B00004FB065188B23B4622464946FEF7FAF91D
:1033C0004FF6FF710020FEF7B1FE04FB065188B2F4
:1033D0002D490A684946FEF759FA00214FF6FF7059
:1033E000FEF7A4FE36E0FEF79BFEC78804FB0651FD
:1033F00088B23B4622464946FEF7DCF94FF6FF719C
:103400000020FEF793FE2148006800E021E0B0F5BF
:103410007A7F06D21D481EA1026801A800F048FA72
:103420000AE01A4800684FF47A71B0FBF1F73A46A7
:1034300019A101A800F03CFA05EB840001AA494655
:10344000FEF724FA00214FF6FF70FEF76FFE01E051
:1034500000E000BF00BF1AB0BDE8F0870000F03FF9
:10346000F000002000408F402564487A00000000F2
:10347000252E32666B487A00DC000020252E31664E
:1034800056000000E0000020E4000020E8000020DA
:10349000256475730000000025646D730000000052
:1034A000D80000202DE9F04781460C46B9F1010F04
:1034B00009D0B9F1020F3CD0B9F1030F57D0B9F1DF
:1034C000040F72D172E0002C18DD4C480068FDF743
:1034D00076F805464FF06632494BFDF783F80DD27A
:1034E00046480068FDF76BF80746464A464BFCF72E
:1034F000B3FE0546FDF7A6F840490860002C17DA30
:103500003E480068FDF75BF8054600221346FDF7CC
:1035100081F80DD239480068FDF751F80546394A5F
:10352000394BFCF73AFF0746FDF78CF83349086042
:1035300061E036480078204440B2344908700846BB
:1035400090F90000002801DA002008702F4890F957
:103550000000012802DD01202C4908702C482B496D
:1035600091F9001050F821002A49086043E02A48E8
:103570000078204440B228490870084690F90000BD
:10358000002801DA00200870234890F90000022882
:1035900002DD02202049087020481F4991F90010DF
:1035A00050F821001E49086025E023E01D480078FE
:1035B000204440B21B490870084690F900000028DA
:1035C00001DA0020087018480078401E154991F96A
:1035D0000010884205DA14480078401E40B21149B4
:1035E000087012480F4991F9001050F82100104955
:1035F000086000E000BF00BFBDE8F087DC000020ED
:1036000066660A409A9999999999B93FD100002024
:103610008C000020E0000020D20000209400002058
:10362000E4000020D4000020D3000020A0000020EF
:10363000E800002010B501F0A5FA02F013FA01F03D
:10364000B1FA10BD10B51348006840F001001149EF
:10365000086008464068104908400E49486008461E
:1036600000680E4908400B4908600846006820F4CD
:10367000802008600846406820F4FE0048604FF44F
:103680001F008860FFF7DEFC4FF00060044908600F
:1036900010BD0000001002400000FFF8FFFFF6FE22
:1036A00008ED00E021B1828942F40052828104E0F9
:1036B00082894DF6FF731A408281704700B585B04C
:1036C00001210420FFF784FB01218803FFF780FB21
:1036D0004FF40070ADF8100018208DF8130003208F
:1036E0008DF8120004A91A48FDF74AFE4FF48060D5
:1036F000ADF8100004208DF8130004A91448FDF75C
:103700003FFE4FF4E13000900020ADF80400ADF82A
:103710000600ADF80800ADF80C000C20ADF80A006A
:1037200069460C4800F054F8FEF740FD012240F2D3
:103730002441084800F026F801224021054800F005
:103740000BF801210348FFF7ADFF05B000BD0000F5
:1037500000080140003801401AB1838A0B4383827C
:1037600002E0838A8B438382704702460020B1F5D2
:10377000007F00D100BF13880B400BB1012000E097
:1037800000207047F0B503460024002600250020E5
:1037900040F66A17B94200D100BF1846C1F342147F
:1037A00001F01F06012707FA06F5012C01D10C30A4
:1037B00004E0022C01D1103000E014301AB1076887
:1037C0002F43076002E00768AF430760F0BD0000C9
:1037D0002DE9F04786B005460E460024A24600BFFC
:1037E000A1460027B08900B100BF2F462C8A4CF6B5
:1037F000FF700440F08804432C82AC894EF6F3102D
:103800000440B08831890843718908430443AC817E
:10381000AC8A4FF6FF400440B0890443AC8201A853
:10382000FFF7E6FA1F48874202D1DDF810A001E059
:10383000DDF80CA0A88900F4004040B10AEBCA00F2
:1038400000EB0A1031684900B0FBF1F807E00AEB21
:10385000CA0000EB0A1031688900B0FBF1F864205F
:10386000B8FBF0F004012009642101FB1089A8894C
:1038700000F4004040B1322000EBC900B0FBF1F091
:1038800000F00700044308E0322000EB0910642137
:10389000B0FBF1F000F00F0004432C8106B0BDE84E
:1038A000F087000000380140C1F3080282807047B1
:1038B0000FB4084B10B504A902AA039800F00EF942
:1038C000044602A9002000F01BFD204610BC5DF854
:1038D00014FB000001430008014609B900207047AD
:1038E000C8B220B1C8B20E4A105C401CF7E701F420
:1038F0007F4028B10A48C1F30722805C0930EEE717
:1039000001F47F0028B10648C1F30742805C113002
:10391000E5E7034800EB116000781930DFE70000AD
:10392000A89B000802E008C8121F08C1002AFAD1AB
:1039300070477047002001E001C1121F002AFBD12F
:10394000704700002DE9FF5F82B00021DDE90430FF
:10395000020DDDF840B0034318D044F61050A2F237
:10396000FF3242431514119801281FD0A5EB0B001C
:10397000401C5FEA000A4FF000064E4FDFF8389116
:10398000B046504615D5CAF1000413E01198012441
:103990004AA3012801D16FEA0B010298119AC0E9EC
:1039A0000031C0E9024206B0BDE8F09FCBF1000053
:1039B000DFE704460021404A491842EB0450CDE9B4
:1039C000001012E0E00707D032463B464046494629
:1039D000FCF7E9FC8046894632463B4610461946CC
:1039E000FCF7E1FC06460F466410002CEAD1DDE945
:1039F0000401DDE90023BAF1000F06DAFCF7D3FC7D
:103A000042464B46FCF7CFFC05E0FCF73EFD424644
:103A10004B46FCF73AFD04460E460022284BFCF7C5
:103A2000F9FD03D84FF0FF30014607E00022254B97
:103A300020463146FCF710FCFCF740FF102409E05B
:103A4000002C0ADB0A220023FCF742FE039B3032E3
:103A50001A55641E50EA0102F2D1641C039AC4F1A3
:103A600011031444119A012A03D0012208430DD1F5
:103A70000AE0084304D000204FF0110B119072E7C8
:103A8000A3EB0B056D1E0DE05B4504DD4FF000025E
:103A900005F1010504E003DA4FF00002A5F101058C
:103AA000002AECD002981199C0E90231C0E9004522
:103AB00079E70000000014400000F03F30000000F3
:103AC0000000F0430000E03F03490868884201D04D
:103AD000012070470020FCE7800100202DE9FF4F06
:103AE00095B09B468946064600250FE2252877D1EA
:103AF00000242746F84A0121059400E0044316F803
:103B0000013F203B01FA03F01042F7D130782A2818
:103B100011D06FF02F033078A0F13002092A16D8A7
:103B2000059A44F0020402EB820203EB42021044C5
:103B3000761C0590EFE759F8042B0592002A03DA6A
:103B4000504244F40054059044F00204761C30784E
:103B50002E2816D116F8010F44F004042A280DD09F
:103B60006FF02F023078A0F13003092B09D807EB52
:103B7000870302EB4303C718761CF3E759F8047B6D
:103B8000761C30786C280FD006DC4C2817D06828BB
:103B90000DD06A2814D104E0742810D07A280FD1EF
:103BA0000DE044F400140AE044F4801401E044F40D
:103BB00040147278824202D104F58014761C761C7F
:103BC000307866280BD013DC582877D009DC002821
:103BD00075D04528F6D04628F4D047281AD19DE163
:103BE00018E0632835D0642879D0652812D195E192
:103BF000702873D008DC6728F1D069286FD06E2850
:103C00000DD06F2806D1B5E073282CD0752875D05B
:103C1000782874D05A46179990476D1C75E1C4F303
:103C20000250022809D003280DD0D9F8001004282A
:103C30000DD00D6009F1040967E1D9F80010EA1709
:103C4000C1E90052F6E7D9F800100D80F2E70D70D7
:103C5000F0E719F8041B8DF8001000208DF8010022
:103C6000EA46012003E059F804AB4FF0FF3061074A
:103C70004FF0000102D40DE008F101018846B9427D
:103C80000FDA8045F8DB1AF808100029F4D108E0B3
:103C900008F1010188468142FADB1AF80810002970
:103CA000F6D105985B46A0EB080721463846179ADF
:103CB00000F094FA284400EB080507E04DE029E104
:103CC0000DE01AF8010B5A4617999047B8F1010810
:103CD000F7D25B4621463846179A13E142E00A22A2
:103CE0000092C4F302524FF0000A022A08D059F899
:103CF00004CB032A4FEAEC710AD00DE029E02AE058
:103D000009F1070121F00702F2E802C1914609E03A
:103D10000FFA8CFC4FEAEC71042A03D14FFA8CFCA9
:103D20004FEAEC71002907DA0A460021DCF1000CA9
:103D300061EB02012D2202E0220504D52B228DF831
:103D40000420012203E0E20701D02022F7E7904699
:103D500059E00A2102E010220DE010214FF0000A84
:103D600000910BE010224FF0000A44F004040827F1
:103D7000009203E008224FF0000A0092C4F30252BE
:103D8000022A05D059F804CB0021032A08D009E003
:103D900009F1070121F00702F2E802C1914605E0AE
:103DA0001FFA8CFC042A01D10CF0FF0C4FF0000824
:103DB000220728D5702806D0009B83F0100353EA11
:103DC0000A0305D00EE040228DF80420012208E00D
:103DD0005CEA010206D030228DF804208DF805003F
:103DE00002229046009B83F0080353EA0A030AD19B
:103DF0005CEA010201D1620705D530228DF804206A
:103E00004FF001087F1E582804D034A003900EA85C
:103E100002900DE036A0F9E753466046009AFCF7A1
:103E200057FC84460398825C0298401E0290027000
:103E30005CEA0100F0D1029806A9081A00F1200AF4
:103E4000600702D524F4803400E00127574502DDE5
:103E5000A7EB0A0000E0002000EB0A0100900598A3
:103E60004144401A0590E00306D45B462146179A68
:103E7000059800F0B3F90544002706E001A85A466A
:103E8000C05D179990476D1C7F1C4745F6DBE0032A
:103E90000CD55B462146179A059800F09FF905441A
:103EA00004E030205A46179990476D1C0099481E2F
:103EB00000900029F5DC08E0029802995A46007843
:103EC000491C0291179990476D1CBAF10001AAF1A3
:103ED000010AF1DC65E100000928010030313233CC
:103EE0003435363738396162636465660000000036
:103EF0003031323334353637383941424344454620
:103F00000000000000F058F90544761C30780028C5
:103F10007FF4ECAD19B02846BDE8F08F620700D4FD
:103F2000062709F1070222F0070CFCE80223E1460C
:103F300003F000485FEA080C02D00FF2702C0DE08D
:103F40005FEA045C02D50FF2682C07E05FEAC47CEC
:103F500002D00FF2602C01E0AFF2700C4FF0FF388E
:103F600023F00043CDF850C065280CD006DC45286E
:103F700009D046281DD047283DD13DE0662818D0FD
:103F800067287ED138E00021112F01DB112000E0ED
:103F9000781CCDE9000106A90EA8FFF7D3FCDDE9E6
:103FA0000F010E9A03910021009207F1010A04917A
:103FB0004DE04FF000400097CDE9011006A90EA892
:103FC000FFF7C0FCDDE90F0203920E9B119900225E
:103FD000DDF80CA00093049211B9791C00EB010AE2
:103FE000B7EB0A0004D4C0F1FF3007F1010A0490D6
:103FF000AAEB0700019044E0012F00DA012700211D
:10400000112F01DD112000E03846CDE9000106A99D
:104010000EA8FFF797FCDDE90F010E9A039100212E
:1040200004910092BA4621070CD40399514500DA55
:104030008A46BAF1010F05DD009AAAF10101515C2F
:10404000302908D0B84202DA10F1040F06DA012153
:10405000CDE9011015E0AAF10101E9E7002805DC2E
:10406000049901440491AAEB000102E0411C51456E
:1040700000DD8A460499401A401C01904FF0004030
:104080000290200704D40198504501DBCDF804804C
:1040900000208DF84F0002980DF14F07B0F1004F4E
:1040A00025D02B200E9002984FF0020800280CDA41
:1040B000404202902D200E9007E00A210298FCF762
:1040C000F1FA3031029007F8011DB8F10001A8F1B2
:1040D0000108F2DC02980028EFD1791E0E980870D2
:1040E000307800F0200040F0450007F8020D12A8DB
:1040F000C01B00F107081498007800B1012000EB04
:104100000A01019801EBE07105984144401A401EF4
:104110000590E00306D45B462146179A059800F007
:104120005DF805441498007818B15A4617999047DD
:104130006D1CE00324D55B462146179A059800F0D4
:104140004DF805441CE00498002807DBDDE9030175
:10415000884203DD0098405C179901E017993020F0
:104160005A469047049805F10105401C04900198B7
:10417000401E019004D12E205A46179990476D1C7D
:10418000BAF10001AAF1010ADDDC05E017F8010B24
:104190005A46179990476D1CB8F10001A8F1010823
:1041A000F4DC5B462146179A0598ABE62D0000002B
:1041B0002B000000200000002DE9F04104460025FE
:1041C0001E461746880404D405E039462020B0472F
:1041D0006D1C641EF9D52846BDE8F0812DE9F0413B
:1041E000044600251E469046C80301D5302700E04E
:1041F0002027880404D505E041463846B0476D1CA9
:10420000641EF9D52846BDE8F08100002DE9FC5F69
:1042100004468B4615461E46DDE90C9ADDE90E780C
:1042200004F114004060006000BF1C346560A660AB
:10423000C4F80C90C4F810A02321D4E9030200F0C4
:1042400077FED4E9033C63441A1F0F4BD4E9010104
:1042500000F04AFC2060A77667760020E061C4F891
:104260002080C4F82480606120766065A0651C3CD5
:1042700000902346054A2146019004F1440001F0D4
:1042800073FC0020BDE8FC9F89570008D559000841
:104290002DE9F04704460E4617469846DDF8209073
:1042A00084F80990607A20F001006072E66127626C
:1042B0000020A062C4F82480002506E004F1140167
:1042C00001EBC50000F0FEFC6D1C012DF6DBBDE826
:1042D000F08710B50246002001460EE002F11403FB
:1042E00003EBC100D0E900436360D0E900342360F0
:1042F0004060006000BF481C01460129EEDB10BD94
:104300000A68531C0B601070704710B5FEF7ECFD87
:10431000002010BD10B5044600F02AF9FFF7F5FFA4
:1043200010BD000030B51A4C436824681919884242
:1043300015D04B889BB9174B1B6899420FD0164B71
:104340001B688B4201D1144B18604B684360104BC3
:104350001B68C31A0E4D4C682D682C44A3600C4C8E
:10436000836824681A19824211D053887BB90A4B9A
:104370001B68834201D1084B1A6043685360044BA9
:104380001B68D31A024D44682D682C44A36030BDCD
:10439000080100200C010020100100202DE9F04F41
:1043A00085B00D469C46DDE90F740E9B04F0400875
:1043B000B8F1000F02D0DFF8688101E0DFF8648116
:1043C000CDF8008004F01008B8F1000F01D024F0FF
:1043D000010404F00108B8F1000F02D04FF03008DA
:1043E00001E04FF02008C246002604F00208B8F1B0
:1043F000000F11D0002A02DA2D2652420CE004F000
:104400000408B8F1000F01D02B2605E004F00808DD
:10441000B8F1000F00D02026002142B94FF0300B38
:104420008846491C0DF1040909F808B01DE01AE09E
:10443000E146B9F10A0F08D14FF00A0BB2FBFBFEBF
:104440000BFB1E28B2FBFBF202E002F00F08120980
:1044500000BFDDF8009019F808B08846491C0DF13E
:10446000040909F808B0002AE2D1B94200DD0F467C
:10447000DB1B04F01108B8F1000F10D116B1002BAE
:1044800000DD5B1E06E0A84203D84FF0200880F84C
:104490000080401CB3F10008A3F10103F3DC26B156
:1044A000A84201D806705B1E401C04F01008B8F149
:1044B000000F0AD104E0A84201D880F800A0401CF7
:1044C000B3F10008A3F10103F5DC06E0A84203D82C
:1044D0004FF0300880F80080401CB8467F1E8845A9
:1044E000F4DC08E0A84205D80DF1040818F80180B2
:1044F00080F80080401CB1F10008A1F10101F1DC5D
:1045000006E0A84203D84FF0200880F80080401C45
:10451000B3F10008A3F10103F3DC05B0BDE8F08FAF
:10452000B99C0008A89C00081CB5142002210B02AD
:104530000022CDE90010044904A001F0F6F8044679
:10454000204601F00FFA1CBD154300086D61696E2D
:104550000000000010B5044C02E020688047241DD4
:1045600002488442F9D310BD009D0008049D000854
:1045700010B5044C02E020688047241D02488442A4
:10458000F9D310BD049D0008089D000810B5FBF785
:10459000EBFD044604480088401C00B20249088034
:1045A0002046FBF7E5FD10BD7001002010B5FBF7BC
:1045B000DBFD04460B480088401E00B20949088014
:1045C0000846B0F90000002807DC002008802046DB
:1045D000FBF7CEFD00F060FE02E02046FBF7C8FDD1
:1045E00010BD00007001002070B5054605B970BD12
:1045F0001D480068854203D31C480068854200D3EB
:10460000F5E7A5F10C044FF0FF31194800F00EFF5B
:10461000608818B12088B0F5F55F08D015A000F0CB
:1046200033FB23886288214619A000F02DFB00206F
:1046300060804FF4F550208021480068844201D208
:104640001F480460084960680968611A401A1D49DA
:104650000968081A1B4908602046FFF763FE0448F2
:1046600000F0C7FE00BFC2E7080100200C010020D7
:10467000F4150020746F2066726565206120626108
:1046800064206461746120626C6F636B3A0A00009D
:104690006D656D3A203078253038782C207573653B
:1046A0006420666C61673A2025642C206D6167691F
:1046B0006320636F64653A203078253034780A00CF
:1046C000100100201801002000487047FC03002062
:1046D00000487047FC1300202DE9F0419AB05A4879
:1046E00000684FF47A72B0FBF2F1B1F1807F00D331
:1046F0001DE021F07F40401E4FF0E0225061501736
:104700000F22002807DA13071F0E504B00F00F0688
:10471000361F9F5503E013071E0E4D4B1E5400BF5E
:1047200000204FF0E02290610720106100BFFDF7EC
:10473000F9FAFDF70BFD012046490860FEF7BEFFC0
:10474000FCF72EFAFCF7EEFCFDF786FD0320FDF7E3
:104750008DFA00214FF6FF70FDF7E8FC3E48038814
:104760003E48028800210846FDF724F8FDF79EFD2B
:104770000A254FF0070832241E236A01002108464B
:10478000FDF718F8364837A10CC801A8FFF790F8D4
:10479000284601AA4146FDF779F834480068FBF73E
:1047A0000EFF064632460B4631A101A8FFF780F8FE
:1047B000611901F1140001AA4146FDF767F805EB04
:1047C000440101F10F002C490A684146FDF75EF8EB
:1047D00004EB4401481929490A684146FDF756F897
:1047E00027480068B0F57A7F06D2254825A10268DF
:1047F00001A8FFF75DF80AE0214800684FF47A71DC
:10480000B0FBF1F6324621A101A8FFF751F805EB04
:10481000840001AA4146FDF739F804EB84014819E8
:104820001C490A684146FDF731F8FFF793FEFFF790
:104830004FFF0646FFF748FF0746314600F0ACFE43
:104840001AB0BDE8F08100000000002018ED00E083
:1048500000E400E0140C0140320000203000002091
:10486000F0000020252E31666B487A00DC00002025
:10487000252E316656000000E0000020E4000020F4
:10488000E8000020256475730000000025646D7346
:1048900000000000D800002010B50446FFF776FEA7
:1048A00019E020780A280AD10D210E48FEF7FCFFF6
:1048B00000BF80210B48FEF758FF0028F9D014F8FC
:1048C000011B0848FEF7F0FF00BF80210548FEF7F6
:1048D0004CFF0028F9D020780028E2D1FFF766FECF
:1048E00010BD00000038014070B505462C1D2E4853
:1048F000006838B128462C4909688847064606B939
:1049000070BD00BF29A0E16B00F0BEF92BA0216AA9
:1049100000F0BAF92DA0616A00F0B6F92FA0A16AE3
:1049200000F0B2F931A0E16A00F0AEF933A02168DD
:1049300000F0AAF935A0616800F0A6F937A0A168D7
:1049400000F0A2F939A0E16800F09EF93BA02169CE
:1049500000F09AF93DA0616900F096F93FA0A169C5
:1049600000F092F941A0E16900F08EF943A0216BBB
:1049700000F08AF945A0616B00F086F947A0A16BB1
:1049800000F082F9287800F0040038B100F0C2FF8E
:104990000646314645A000F077F902E04BA000F052
:1049A00073F900BFFEE70000A00100207073723AA7
:1049B000203078253038780A000000007230303A14
:1049C000203078253038780A000000007230313A03
:1049D000203078253038780A000000007230323AF2
:1049E000203078253038780A000000007230333AE1
:1049F000203078253038780A000000007230343AD0
:104A0000203078253038780A000000007230353ABE
:104A1000203078253038780A000000007230363AAD
:104A2000203078253038780A000000007230373A9C
:104A3000203078253038780A000000007230383A8B
:104A4000203078253038780A000000007230393A7A
:104A5000203078253038780A000000007231303A72
:104A6000203078253038780A000000007231313A61
:104A7000203078253038780A000000007231323A50
:104A8000203078253038780A00000000206C723A17
:104A9000203078253038780A000000002070633A12
:104AA000203078253038780A000000006861726490
:104AB000206661756C74206F6E2074687265616425
:104AC0003A2025730D0A0D0A000000006861726427
:104AD000206661756C74206F6E2068616E646C6511
:104AE000720D0A0D0A000000F0B504460D46164688
:104AF000301D20F0070040380146002203E00C4F33
:104B000041F82270521C102AF9D30D624FF0000CAC
:104B1000C1F824C0C1F828C0C1F82CC0C1F830C009
:104B20004B638C634FF0807CC1F83CC0F0BD00004B
:104B3000EFBEADDE30B5014601B930BD4FF0E02427
:104B400064694FF47A75B4FBF5F404FB01F24FF09D
:104B5000E024A06900BF4FF0E024A469844204D29D
:104B60004FF0E024A469031B07E04FF0E0246469E0
:104B700004444FF0E025AD69631B9342EBD300BFC3
:104B8000DBE7000010B5FBF7EFFA044604480078B5
:104B9000401C034908702046FBF7EAFA10BD0000EC
:104BA0000401002010B5FBF7DFFA04460448007842
:104BB000401E034908702046FBF7DAFA10BD0000DA
:104BC0000401002070B504462068A0F114052846B1
:104BD00000F082FE002070BD70B505460EE0FBF7C8
:104BE000C3FA06462868A0F114044FF0FF30206392
:104BF000204600F071FE3046FBF7BAFA284600F076
:104C000080F80028EBD0002070BD2DE9F04105466A
:104C10000C469046204600F0BBFEB8F1000F03D0D2
:104C2000B8F1010F23D105E004F11401284600F08A
:104C300061F81CE02E680FE0A6F1140794F8350027
:104C400097F83510884206DA04F1140107F11400D0
:104C500000F050F802E03668AE42EDD100BFAE423F
:104C600004D104F11401284600F044F800BF00BF4D
:104C70000020BDE8F08110B5044604F1140000F0F6
:104C80001BF8002010BD00000FB438B505A8009037
:104C90007F210848009B049A01F012F804467F2CFB
:104CA00000D97F240348FFF7F7FD0020009038BCAF
:104CB0005DF814FB74150020406000607047406090
:104CC0000060704740600060704702685160026891
:104CD0000A600160486070470268516002680A60BB
:104CE0000160486070470268516002680A600160B4
:104CF000486070474268116042684A6041600860DD
:104D0000704701460868884201D1012070470020A1
:104D1000FCE701460868884201D101207047002065
:104D2000FCE7D0E900215160D0E900121160406039
:104D300000607047D0E900215160D0E90012116095
:104D400040600060704700002DE9F041054615B94C
:104D50000020BDE8F081E81C20F003054E48006803
:104D6000854201D90020F4E70C2D00D20C254FF02C
:104D7000FF314A4800F05AFB494800684949096830
:104D8000461A7EE04748006884196088002874D17C
:104D900006F10C006168081AA8426ED306F10C00F7
:104DA0006168091A05F11800814230D306F10C0040
:104DB00000EB05083B48006800EB08074FF4F5508E
:104DC00038800020788060687860BE60C4F8048015
:104DD000012060803048796800680C30814205D03D
:104DE0003049786809680844C0F808802E4801688E
:104DF00005F10C0008442C4908602C48006809683B
:104E0000884219D2284800682849086014E0012027
:104E10006080244960680968611A401A224909685B
:104E2000084421490860214800680968884203D283
:104E30001D4800681D4908604FF4F550208018484F
:104E40000068844212D107E015480068406815499F
:104E5000096808441249086011480068408828B170
:104E60000F480068124909688842EDD10B4800F0EC
:104E7000C0FA04F10C006CE7FFE70A480068304410
:104E8000466805480068401BB0423FF67BAF0348C8
:104E900000F0AFFA00205CE714010020F4150020B8
:104EA0001001002008010020180100201C01002032
:104EB0000C0100202DE9F0410F46164604463D4600
:104EC0003346102B28D305F0030C04F003084CEAFA
:104ED000080CBCF1000F1FD121462A4610E052F801
:104EE00004CB41F804CB52F804CB41F804CB52F880
:104EF00004CB41F804CB52F804CB41F804CB103B6F
:104F0000102BECD204E052F804CB41F804CB1B1F69
:104F1000042BF8D20C46154603E015F801CB04F833
:104F200001CBB3F1000CA3F10103F6D1BDE8F08190
:104F3000F0B50C460546E6B2042A15D300F0030787
:104F400097B9014646EA062343EA034304E008C151
:104F500008C108C108C1103A102AF8D201E008C1FE
:104F6000121F042AFBD20D4601E005F8016B171E43
:104F7000A2F10102F9D1F0BD2DE9F04707468846BC
:104F800091469A463946052000F008F9044614B9BE
:104F90002046BDE8F08784F809A02046FFF76BFEA5
:104FA00008F1030020F003002084A4F82290218C53
:104FB000091D628C01FB02F0FFF7C6FEE061E069AB
:104FC00020B9204600F018F80020E2E70020A06297
:104FD000E0622063002508E0208C001DE16905FBEC
:104FE0000016206B306026636D1C608CA842F3DCD9
:104FF0000020A0842046CCE710B5044604F114003C
:10500000FFF7EAFDE069FFF7EFFA204600F0EBF862
:10501000002010BD2DE9FF4704460F4690464FF093
:10502000000900F077FC0546FBF79EF88246A08C4D
:1050300048B9039838B95046FBF79AF86FF0010069
:1050400004B0BDE8F0873CE000202863039830B945
:105050005046FBF78DF86FF001002863F0E7627AA5
:10506000294604F11400FFF7D0FD039800280CDD59
:1050700000F0F2FC814603AA002105F1440000F093
:1050800047FD05F1440000F087FD5046FBF770F83E
:1050900000F002F9286B08B1286BD1E7FBF764F840
:1050A0008246039800280CDD00F0D6FCA0EB09092D
:1050B0000398A0EB090003900398002801DA002070
:1050C0000390A08C0028BFD0A66A3068A062E06A76
:1050D000B04201D10020E062A08C401EA084504666
:1050E000FBF746F8208C404501D2208C00E040467A
:1050F0000246311D3846FFF7DDFEFBF735F88246E4
:10510000206B306026635046FBF732F8002097E7AB
:105110002DE9F04104460F461646208CB04203D2DA
:105120004FF0FF30BDE8F081FBF71EF88046256B9D
:105130002DB94046FBF71CF86FF00200F2E7286833
:1051400020634046FBF714F80020286032463946B9
:10515000281DFFF7AFFEFBF707F88046E06A08B1AD
:10516000E06A0560E562A06A00B9A562A08C401CF7
:10517000A08404F11400FFF7C4FD50B904F1140039
:10518000FFF720FD4046FAF7F3FF00F085F8002016
:10519000C8E74046FAF7ECFF0020C3E72DE9F041ED
:1051A00005460F46284600F03BF80646F068FFF734
:1051B000CBFD044614B90020BDE8F0812572002023
:1051C000607208223946204600F0CBF9FAF7CCFF8E
:1051D000804604F10C01301DFFF777FD4046FAF7D9
:1051E000C7FF2046E8E770B50446FAF7BDFF05465D
:1051F00004F10C00FFF795FD2846FAF7B9FF2046A9
:10520000FFF7F2F970BD70B50446FAF7ADFF054639
:1052100004F10C00FFF785FD2846FAF7A9FF70BDE1
:10522000024600210AE0074800EB01100078904296
:1052300003D1044800EB01107047491C0529F2DB3B
:105240000020F9E7200100202DE9F04104460D4639
:1052500016462846FFF7E4FF074645F08000207217
:1052600008223146204600F07CF9FAF77DFF80469F
:1052700004F10C01381DFFF728FD4046FAF778FFCE
:10528000BDE8F0810146087A00F0800008B10120F5
:1052900070470020FCE700002DE9F041FAF764FFB9
:1052A00007461B48008868BB1A480068FEF714FBD5
:1052B000461E194850F83600A0F11404174800683B
:1052C00084421BD016490E701448056804601548C6
:1052D000007848B904F11C0105F11C00FAF74BFFF6
:1052E0003846FAF745FF0CE004F11C0105F11C00FB
:1052F000FAF741FF3846FAF73BFF02E03846FAF783
:1053000037FF02E03846FAF733FFBDE8F0810000CE
:10531000700100207C010020141600207401002080
:10532000780100200401002070B50446FAF71CFF44
:10533000054614F8340F20F00F0040F001002070F3
:105340006278343C0A4B03EBC20004F1140142685A
:10535000116042684A604160086000BF0549A06B67
:1053600009680843034908602846FAF701FF70BD41
:10537000141600207C01002070B50446FAF7F4FEF4
:10538000054604F11400D0E900215160D0E9001273
:1053900011604060006000BF94F83510094A02EBCC
:1053A000C1000168814201D1012100E0002129B141
:1053B0000548A16B00688843034908602846FAF74E
:1053C000D7FE70BD141600207C0100202DE9F041AD
:1053D00004460D4616461F462A4601212046FFF781
:1053E00033FF2046FFF747FCA68367720020BDE825
:1053F000F08170B504460025FAF7B6FE064604F1C2
:105400001400FFF77EFC28B904F11400FFF7DAFB63
:10541000012502E0A08B401CA0833046FAF7A8FECD
:10542000012D01D1FFF738FF002070BD73B505468F
:10543000FAF79AFE0646A88B002806DDA88B401EC8
:10544000A8833046FAF794FE28E0019828B9304640
:10545000FAF78EFE6FF001007CBD00F05BFA0446A7
:10546000002020636A7A214605F11400FFF7CDFB86
:105470000198002809DD01AA002104F1440000F090
:1054800047FB04F1440000F087FB3046FAF770FE5A
:10549000FFF702FF206B08B1206BDDE70020DBE7A0
:1054A00008B509A0FFF7F0FB0AA0FFF7EDFB12A07B
:1054B000032300221946009012A0FFF7E5FB19A074
:1054C000FFF7E2FB08BD00000A205C207C202F0AC9
:1054D000000000002D205254202D20202020205498
:1054E0006872656164204F7065726174696E6720CF
:1054F00053797374656D0A004A616E20203520323D
:1055000030323100202F207C205C202020202025DC
:10551000642E25642E2564206275696C64202573D1
:105520000A0000002032303036202D203230313851
:1055300020436F7079726967687420627920727491
:105540002D746872656164207465616D0A000000E5
:1055500001460A4600E0521C10780028FBD1501A80
:10556000704770B50346A2B118460C4600BF14F848
:10557000016B00F8016B3EB902E0002500F8015B09
:10558000551E2A1EF9D102E0551E2A1EEFD100BF7A
:1055900000BF184670BD00002DE9F04105460E46DB
:1055A000E81C20F0030726F00308B8F1180F09D90A
:1055B000A8F11800B84205D3A8EB070018381E4917
:1055C000086006E0324629461CA0FFF75DFBBDE8F7
:1055D000F0812948076004684FF4F5502080164890
:1055E00000680C3060600020A06060802249606824
:1055F00009680844214908604FF4F550096808809B
:1056000001201E49096848800B4800680C301B497E
:1056100009684860084800680C30184909688860C3
:105620000023012216A11848FFF7D0FE1248006897
:105630001649086000BFCAE7140100206D656D209F
:10564000696E69742C206572726F72206265676979
:105650006E206164647265737320307825782C2025
:10566000616E6420656E642061646472657373208A
:10567000307825780A000000080100200C01002085
:105680006865617000000000F41500201001002022
:1056900010B500200B490880002405E00A4901EB01
:1056A000C400FFF70CFB641C082CF7DB072007493C
:1056B0000870002006490860064908600648FFF7A0
:1056C000FEFA10BD700100201416002078010020A1
:1056D000740100207C0100208001002070B5084882
:1056E0000068FEF7F9F8451E064850F83500A0F1AD
:1056F00014040548046004F11C00FAF76AFD70BD4B
:105700007C010020141600207401002010B5002434
:1057100005E0044901EBC400FFF7D4FA641C002C37
:10572000F7D010BD8801002070472DE9FF5F0646C5
:105730000F4690461D46DDE90EAB31460020FFF7CF
:105740002DFD8146B9F1000F03D1002004B0BDE862
:10575000F09F2846FFF7F8FA044624B94846FFF7B9
:1057600042FD0020F2E743463A46314648468DE87E
:10577000300CFEF74BFD4846E8E710B504462046DE
:1057800000F0CEF810BD000070B512480468FAF7BA
:10579000EBFC05462046FFF7EFFD042084F83400BB
:1057A00004F1440000F0D0F92046FFF76BFD01281A
:1057B00005D1206F18B92046FFF725FD04E004F15C
:1057C00014010548FFF788FA2846FAF7D1FCFFF7DD
:1057D00063FD70BD740100208001002001E000F035
:1057E00001F8FCE770B537E0FAF7BEFC0546FEF7B6
:1057F0006BF918B31B480068A0F1140404F11400FD
:10580000D0E900215160D0E90012116040600060D1
:1058100000BFFEF7BBFE206F10B12046216F884706
:105820002046FFF72FFD012805D1FEF7BFFE2846D1
:10583000FAF79EFC70BDFEF7B9FE03E02846FAF7C2
:1058400097FCF7E72846FAF793FCA06AFEF7CCFE30
:105850002046FFF7C8FC00BFFEF736F90028C3D189
:1058600000BFE7E7800100201FB520200721C2000C
:10587000074BCDE90032CDE902100023054A06A10D
:10588000074800F00FF8064800F06CF81FBD000054
:1058900074140020DD5700087469646C6500000012
:1058A000FC1300202DE9FF5F05460C4616461F46F7
:1058B000DDE910ABDDE90E89224600212846FFF71D
:1058C000C3FC3B463246214628468DE8000FFEF7D2
:1058D0009DFC04B0BDE8F09F70B5044694F8340018
:1058E00000F00F00022802D04FF0FF3070BDFAF731
:1058F0003BFC054604F11400FFF71CFA04F14400D8
:1059000000F0C6F92846FAF733FC2046FFF70CFDF5
:105910000020EBE701480068704700007401002098
:1059200031B5FAF721FC05460D480468204600F021
:105930002FF86A46002104F1440000F0E9F804F170
:10594000440000F029F92846FAF712FCFFF7A4FCFE
:10595000206B801C08B900202063002038BD0000A7
:105960007401002010B504463434A078607061786A
:10597000012088406060022004F834092046FFF7C7
:10598000ABFFFFF7C7FF08B1FFF786FC002010BD93
:1059900070B5044694F8340000F00F00012802D0DE
:1059A0004FF0FF3070BDFAF7DFFB054694F8340086
:1059B00020F00F0040F0020084F834002046FFF78A
:1059C000DBFC04F1440000F063F92846FAF7D0FB51
:1059D0000020E7E770B5044625466FF00100286314
:1059E00005F11400FFF7A6F92846FFF79DFCFFF725
:1059F00053FC70BD70B5FAF7B7FB05461448046850
:105A000094F8340000F00F0001281CD1D4E90510EF
:105A1000814218D004F11400FFF78CF994F8352076
:105A20000C4B03EBC20004F11401426811604268A0
:105A30004A604160086000BF2846FAF799FBFFF70B
:105A40002BFC002070BD2846FAF792FB0020F9E7F6
:105A500074010020141600200148006870470000FF
:105A60000001002010B50A480068401C0849086081
:105A7000FFF750FF0446206C401E2064206C18B9CC
:105A8000E06B2064FFF7B6FF00F004F810BD0000E3
:105A90000001002070B5FFF7DFFF0546FAF764FB51
:105AA000064628E019480068A0F11404A06A281AE4
:105AB0006FF0004188421DD22046FEF70AFCD4E96F
:105AC00007108847FFF7C8FF0546607A00F002001C
:105AD00058B1607A00F0010038B1607A20F001001E
:105AE0006072204600F058F805E0607A20F001006E
:105AF000607200E004E00548FFF70BF90028D1D000
:105B000000BF3046FAF734FB70BD0000880100206A
:105B1000034649B1012904D0022908D0032910D134
:105B20000AE0586A10600CE01068586209E0587A80
:105B300020F00200587204E0587A40F002005872D7
:105B400000BF00BF0020704770B50446FAF70CFB99
:105B500005462046FEF7BDFB2846FAF709FB20461E
:105B6000FFF751FB002070BD2DE9F84307460C46B6
:105B700015461E46DDE90889224609213846FFF709
:105B800063FB4346324629463846CDF80090FEF77F
:105B90007FFBBDE8F88300002DE9F8430546FAF7DE
:105BA000E3FA80462846FEF794FB687A20F001006D
:105BB00068724046FAF7DCFAFFF74EFF696A08445C
:105BC000A862FAF7D1FA80462F4F009700242AE006
:105BD00019E05DF824201168142202EBC402881A2F
:105BE000826AAB6AD21A00D108E0826AAB6AD21A22
:105BF0006FF000439A4200D20CE000BF5DF8240031
:105C000000684DF824005DF8240007EBC4014968E2
:105C10008842DED100BF2CB15DF824000830611C41
:105C20004DF82100641C002CD2D018480068401C9C
:105C3000164908600846066805F114010098FFF748
:105C400052F8022412E006F0030060B9C4F1010327
:105C500005F1140202EBC301C4F101025DF8220058
:105C6000FFF741F800E003E0B608641C012CEAD914
:105C700000BF687A40F0010068724046FAF778FA8F
:105C80000020BDE8F883000088010020900100207A
:105C900070B50446607A00F0010010B94FF0FF3093
:105CA00070BDFAF761FA05462046FEF712FB28465A
:105CB000FAF75EFA607A20F0010060720020EFE7E8
:105CC0002DE9FF4F89B0804644460A984044461E5D
:105CD000464504D24FF0FF36A6EB08000A906FE16C
:105CE0000B980078252806D0B44202D80B9800788B
:105CF0002070641C61E1002526E00B98401C0B908D
:105D00000B9800782D2802D145F010051CE00B9867
:105D100000782B2802D145F0040515E00B98007897
:105D2000202802D145F008050EE00B9800782328C2
:105D300002D145F0200507E00B980078302802D109
:105D400045F0010500E000E0D7E700BF4FF0FF3766
:105D50000B98007830380A2804D20BA800F061F9BB
:105D600007460EE00B9800782A280AD10B98401CB1
:105D70000B900C9880C80C90002F02DA7F4245F0FF
:105D800010054FF0FF390B9800782E281CD10B9886
:105D9000401C0B900B98007830380A2804D20BA8CE
:105DA00000F03FF981460AE00B9800782A2806D1D6
:105DB0000B98401C0B900C9850F8049B0C90B9F178
:105DC000000F01DA4FF00009002004900B980078D2
:105DD000682803D00B9800786C2805D10B980078C0
:105DE00004900B98401C0B900A2005900B980078AB
:105DF0006F2875D00CDC632813D004DC252870D004
:105E000058286FD18DE064286DD06928F9D18FE0D2
:105E100070286AD0732825D0752878D07828F0D1DA
:105E200082E005F0100040B904E0B44201D820201F
:105E30002070641C781E071EF7DC0C9810F8041BF9
:105E40000C90C8B20790B44201D807982070641C27
:105E500004E0B44201D820202070641C781E071E84
:105E6000F7DCAAE00C98006806900C98001D0C90D6
:105E7000069808B95AA006900698FFF769FB834672
:105E8000B9F1000F02DDCB4500DDCB4605F0100077
:105E900048B904E0B44201D820202070641C384680
:105EA0007F1E5845F6DC002008900BE0B44202D873
:105EB000069800782070641C0698401C069008988C
:105EC000401C089008985845F0DB04E0B44201D823
:105ED00020202070641C38467F1E5845F6DC6CE09C
:105EE0001CE015E028E022E0FFE7781C10B9082745
:105EF00045F00105CDE9007902950C9804C81023FE
:105F000031460C902046FEF749FA044655E012E06F
:105F1000B44201D825202070641C4EE00820059072
:105F20001DE045F0400500BF1020059017E000BFC0
:105F300045F0020500BF12E0B44201D825202070D0
:105F4000641C0B98007830B1B44202D80B980078EA
:105F50002070641C02E00B98401E0B902DE000BFE7
:105F600004986C2807D10C9850F804AB0C9005F0FD
:105F70000200B8B116E0049868280BD10C9830F8EC
:105F8000041B1FFA81FA0C9005F0020050B10FFAC1
:105F90008AFA07E00C9850F804AB0C9005F0020068
:105FA00000B100BFCDE90079029552463146204646
:105FB000059BFEF7F3F9044600BF0B98401C0B90BD
:105FC0000B98007800287FF48BAEB44201D8207083
:105FD00001E000203070A4EB08000DB0BDE8F08FA8
:105FE000284E554C4C290000002070470020704777
:105FF000002070470020704710B5FAF7B5F8FEF79B
:106000006BFBFFF74DFAFFF781FBFFF741FBFEF754
:106010008BFAFFF789FBFFF727FCFFF75FFB0020F8
:1060200010BD0146002009E00B685A1C0A601A786E
:1060300000EB800302EB4302A2F130000A68127801
:10604000303A0A2AF0D37047000000000000000038
:1060500000000000000000000000001818181818C8
:106060001808000818000000000000342424240050
:1060700000000000000000000000000016247F2443
:1060800024247E2424000000000000083E684868A4
:106090001C1612127C10100000000061D2967408C9
:1060A00010162949C6000000000000003C64643856
:1060B000724ACE467F000000000000181818180031
:1060C000000000000000000000000004081810306C
:1060D0003030301010180C04000000201008080C9C
:1060E0000404040C08181020000000080A341C6A7C
:1060F0000800000000000000000000000000181868
:10610000187F1818180000000000000000000000B0
:106110000000001818083000000000000000000017
:10612000003C000000000000000000000000000033
:1061300000000018180000000000000206040C080F
:106140000810102020400000000000003C6642477C
:106150005B7342663C0000000000000018784808AD
:10616000080808087E000000000000003C46060603
:10617000040810207E000000000000007C060604D9
:106180003C0202067C000000000000000C1C1424ED
:106190006444FF0404000000000000007E606060B2
:1061A0007E0202067C000000000000001E306048F5
:1061B000764242623C000000000000007E020604BD
:1061C0000C08181030000000000000003C6242364D
:1061D0001C6642423C000000000000003C66424257
:1061E000661A020478000000000000000000181881
:1061F000000000181800000000000000000018183F
:10620000000000181808300000000000000004180A
:106210003060100C060000000000000000000000CC
:106220007E007E000000000000000000000030182A
:1062300004060C1020000000000000301C060606BA
:1062400018100010100000000000001C224141DD69
:10625000B5A5A5AF94C0403C00000000181C342434
:1062600026627E43C1000000000000007C464246DA
:106270007C4242427C000000000000001E204040A2
:10628000404040603E000000000000007C46424369
:106290004343424678000000000000007E606060DA
:1062A0007E6060607E000000000000007E60606034
:1062B0007E60606060000000000000001E604040E2
:1062C000CE4242623E0000000000000042424242D4
:1062D0007E42424242000000000000007E18181872
:1062E000181818187E000000000000007C04040448
:1062F00004040444780000000000000042444850B8
:1063000070584C4442000000000000002020202073
:10631000202020203E000000000000006266675F31
:106320005B5BC1C1C10000000000000062627252EC
:106330005A4A4E4646000000000000003C6243C33B
:10634000C3C343623C000000000000007C464242A0
:106350004678404040000000000000003C6243C31B
:10636000C3C343623C180F00000000007C666266F5
:106370007C6C646662000000000000003E604060CB
:106380001C0602027C000000000000007F181818A4
:10639000181818181800000000000000424242427D
:1063A000424242623C00000000000000C1434262E1
:1063B0002624341C1800000000000000C1C141491F
:1063C0005B5B7666660000000000000043663418E0
:1063D000181C2466C300000000000000C14266349F
:1063E0001C18181818000000000000007E02040CA1
:1063F000181020607E0000000000001C101010101B
:10640000101010101010101C000000402020101060
:1064100008080C04060200000000003C0C0C0C0CE8
:106420000C0C0C0C0C0C0C3C00000000181C246222
:10643000000000000000000000000000000000005C
:1064400000000000000000FF00000020100000001D
:1064500000000000000000000000000000003C06FA
:10646000023E42467A0000000000004040405C626C
:10647000424242427C0000000000000000001E205A
:10648000604060203E0000000000000202023E6208
:10649000424242663A0000000000000000003C62F8
:1064A000427E40603E0000000000000F1810107E89
:1064B00010101010100000000000000000003F66E7
:1064C000426658403E43423C0000004040405C620F
:1064D00042424242420000000000001818007808C2
:1064E000080808087E000000000000040C007C047E
:1064F0000404040404040C78000000606060626C12
:1065000078706864620000000000007808080808DD
:10651000080808087E000000000000000000764B1C
:106520004B4B4B4B4B0000000000000000005C6236
:1065300042424242420000000000000000003C6273
:10654000424342623C0000000000000000005C6228
:10655000424242427C4040400000000000003E6257
:10656000424242663A0202020000000000006E72DF
:1065700063606060600000000000000000003E20DA
:10658000203C06027C000000000000001010FE10FD
:10659000101010101E000000000000000000424219
:1065A000424242663A000000000000000000434200
:1065B0006624341818000000000000000000C1C16B
:1065C0005B5A5E6666000000000000000000622664
:1065D0001C181C266200000000000000000043425E
:1065E0006624341C181830E00000000000007E060D
:1065F0000C1810207E0000000000000E1810101073
:10660000307010101010180E000008080808080854
:1066100008080808080808080000003018080808DA
:106620000C0E0808080818300000000000000000E8
:10663000714B060000000000000000000000000098
:10664000000000000000000000000000000000004A
:10665000000000000000000000000000000000003A
:10666000000000000000000000000000000000002A
:106670000000038001800180018001800180018091
:106680000180018001800000000003C003C0000001
:1066900000000000000000000000000000000000FA
:1066A00000000E700E700E700C3000000000000034
:1066B00000000000000000000000000000000000DA
:1066C00000000000000000000000000000000000CA
:1066D000000000000618063806307FFE0C300C3033
:1066E0000C300C307FFE0C601C60186018600000DD
:1066F000000000000000000000000000000000009A
:1067000000C000C00FF83CC831C031803D801F8000
:1067100003F001F8031C030C031C3FF83FE00700E3
:106720000600000000000000000000000000000063
:106730001C007E0E630C631863307E6000C0018015
:106740000300077C0EE61CC618C630C6607C00003D
:106750000000000000000000000000000000000039
:1067600000000FE01CF0387038701C601FC00F0074
:106770003F8C71CC60EC607C70383CFC1FCE00001C
:106780000000000000000000000000000000000009
:10679000000003C0018001800180000000000000B3
:1067A00000000000000000000000000000000000E9
:1067B00000000000000000000000000000000000D9
:1067C000003000E001C00180030007000600060061
:1067D0000E000E000E000E000600070003000380EE
:1067E00001C000E0003000000000000000000000D8
:1067F0000C0006000380018001C000E00060006022
:106800000070007000700060006000E000C0018057
:10681000038006000C0000000000000000000000E3
:106820000000018011881DB803C007E03DBC01884D
:1068300001800000000000000000000000000000D7
:106840000000000000000000000000000000000048
:106850000000000000000000018001800180018034
:1068600001807FFE01800180018001800000000026
:106870000000000000000000000000000000000018
:106880000000000000000000000000000000000008
:10689000000000000000000003C003C001C001C0F0
:1068A00003801F0000000000000000000000000046
:1068B00000000000000000000000000000000000D8
:1068C00000000FF0000000000000000000000000C9
:1068D00000000000000000000000000000000000B8
:1068E00000000000000000000000000000000000A8
:1068F000000000000000000003C003C003C000004F
:106900000000000000000000000000000000000087
:106910000000001800380030006000E000C001C036
:1069200001800300030006000E000C001C0018008C
:106930003000000000000000000000000000000027
:10694000000001800FF01C38381C301C707E70EE87
:10695000738E7E0E7C0C300C381C1E780FE000000D
:106960000000000000000000000000000000000027
:106970000000000007C01FC039C001C001C001C035
:1069800001C001C001C001C001C03FFC3FFC0000CC
:1069900000000000000000000000000000000000F7
:1069A000000003801FF01838003800180038003845
:1069B000007001E0038007001C003FFC3FFC00006A
:1069C00000000000000000000000000000000000C7
:1069D000000007801FF0003800380038003007E062
:1069E00007F00038001C001C001820F83FE00000F1
:1069F0000000000000000000000000000000000097
:106A00000000000000F001B0033007300E301C30F1
:106A1000383070307FFE7FFE0030003000300000E4
:106A20000000000000000000000000000000000066
:106A3000000000001FF818001800180018001FE0E0
:106A400000F8001C001C001C003800F01FC00000F3
:106A50000000000000000000000000000000000036
:106A60000000000003F80F001C001800300037F889
:106A70003C3C300C300C380C381C1E380FF0000039
:106A80000000000000000000000000000000000006
:106A9000000000003FFC001C00180038007000607F
:106AA00000E001C001800380070006000E00000026
:106AB00000000000000000000000000000000000D6
:106AC000000003C01FF8381C381C381C1C380FF09D
:106AD00007F01C78381C300C381C3C380FF00000D4
:106AE00000000000000000000000000000000000A6
:106AF000000003801FF03838301C701C700C380CFC
:106B00001FFC0FCC001C001800701FE01F8000004D
:106B10000000000000000000000000000000000075
:106B20000000000000000000000003C003C001805E
:106B3000000000000000000003C003C003C000000C
:106B40000000000000000000000000000000000045
:106B50000000000000000000000003C003C001802E
:106B6000000000000000000003C003C001C001C01D
:106B700003800F0000000000000000000000000083
:106B80000000000000000000003800F001C0070015
:106B90001E0038000E00078001C0007000300000A9
:106BA00000000000000000000000000000000000E5
:106BB00000000000000000000000000000003FFC9A
:106BC000000000003FFC3FFC00000000000000004F
:106BD00000000000000000000000000000000000B5
:106BE00000000000000000001C000F00038001E016
:106BF0000078001C007001E003800E000C00000013
:106C00000000000000000000000000000000000084
:106C100000000FC000F0003800380038003803F0E2
:106C200003800300030000000000078007800000CD
:106C30000000000000000000000000000000000054
:106C400000E007F80C0C18063006700363F3663397
:106C5000C673CC63CC62CC66CCE6C7FCE0006000B7
:106C6000700038101FF0000000000000000000005D
:106C70000000000003C007E006E00E700E700C304C
:106C80001C3818183FFC3FFC700E600EE007000037
:106C900000000000000000000000000000000000F4
:106CA000000000003FF03838381C381C38383FF0FE
:106CB0003FF8381C380C380C381C3FF83FE0000017
:106CC00000000000000000000000000000000000C4
:106CD000000000E007FC1E0438003800300070009F
:106CE00070007000300038003C001F9C07FC000062
:106CF0000000000000000000000000000000000094
:106D0000000000003FF03078301C300C300E300EA8
:106D1000300E300E300E301C30383FF03FC00000D7
:106D20000000000000000000000000000000000063
:106D3000000000001FF818001800180018001FF8C5
:106D40001FF818001800180018001FF81FF800009E
:106D50000000000000000000000000000000000033
:106D6000000000001FF818001800180018001FF895
:106D70001FF818001800180018001800180000006C
:106D80000000000000000000000000000000000003
:106D9000000000F007FC1E04380030007000700096
:106DA00070FC700C700C300C380C1F1C07FC0000C1
:106DB00000000000000000000000000000000000D3
:106DC00000000000300C300C300C300C300C3FFC5C
:106DD0003FFC300C300C300C300C300C300C000010
:106DE00000000000000000000000000000000000A3
:106DF000000000003FFC01800180018001800180D3
:106E0000018001800180018001803FFC3FFC000087
:106E10000000000000000000000000000000000072
:106E2000000000001FF00030003000300030003063
:106E3000003000300030003000701DE01FC0000046
:106E40000000000000000000000000000000000042
:106E500000000000381C387038E039C03B803F002B
:106E60003F003B8039C038E038703838381C0000AB
:106E70000000000000000000000000000000000012
:106E8000000000001C001C001C001C001C001C005A
:106E90001C001C001C001C001C001FFC1FFC000030
:106EA00000000000000000000000000000000000E2
:106EB00000000000381C7C3C6C3E6E6E666E66CE38
:106EC00063C6638661866006600660066006000031
:106ED00000000000000000000000000000000000B2
:106EE000000000003C0C3C0C3E0C360C330C338C88
:106EF000318C31CC30EC306C307C303C301C0000BC
:106F00000000000000000000000000000000000081
:106F1000000001C00FF81C3C381C700E700E60069B
:106F20006006700E700E700C381C1E780FE00000AA
:106F30000000000000000000000000000000000051
:106F4000000000003FF0383C381C380C380C381C6E
:106F500038783FE03800380038003800380000004A
:106F60000000000000000000000000000000000021
:106F7000000001C00FF81C3C381C700E700E60063B
:106F80006006700E700E700C381C1E780FE00180C9
:106F900001C000FF003C00000000000000000000F5
:106FA000000000003FF0383838183818383838F00A
:106FB0003FC038E0387038383838381C380E000098
:106FC00000000000000000000000000000000000C1
:106FD000000001E00FF83800380038003C001F8046
:106FE00003F00078001C001C001C38783FE0000013
:106FF0000000000000000000000000000000000091
:10700000000000007FFE018001800180018001807E
:1070100001800180018001800180018001800000E9
:107020000000000000000000000000000000000060
:1070300000000000300C300C300C300C300C300CE8
:10704000300C300C300C300C381C1C380FF00000A9
:107050000000000000000000000000000000000030
:1070600000000000E006700E700E381C381C1C1862
:107070001C380C300E70066007E003C003C000002F
:107080000000000000000000000000000000000000
:107090000000000060066006600660066186638688
:1070A00073C673CE766C366C3C3C3C3C381C00009E
:1070B00000000000000000000000000000000000D0
:1070C00000000000301C38181C380E7007E003C0A8
:1070D00003C007E00E701C381838381C700E000012
:1070E00000000000000000000000000000000000A0
:1070F00000000000700E700C381C1C380E7006600A
:1071000007E003C001800180018001800180000050
:10711000000000000000000000000000000000006F
:10712000000000003FFC001C0038007000E001C0BF
:10713000038007000E000C0018003FFC3FFC00001D
:10714000000000000000000000000000000000003F
:1071500007F007F00600060006000600060006001D
:1071600006000600060006000600060006000600EF
:107170000600060007F0000000000000000000000C
:10718000000018001C000C0006000700030003802C
:10719000018001C000C0006000700030003800189D
:1071A000000C0000000000000000000000000000D3
:1071B0000FE00FE0006000600060006000600060B1
:1071C00000600060006000600060006000600060BF
:1071D000006000600FE00000000000000000000000
:1071E0000000000003C006C006600C301818301CF8
:1071F000000000000000000000000000000000008F
:10720000000000000000000000000000000000007E
:10721000000000000000000000000000000000006E
:10722000000000000000000000000000000000005E
:1072300000000000FFFF0000000000000000000050
:1072400000001E000380000000000000000000009D
:10725000000000000000000000000000000000002E
:10726000000000000000000000000000000000001E
:10727000000000000000000000001FF01038001C9B
:10728000001C0FFC1C1C381C381C3CFC1FDC0000C4
:1072900000000000000000000000000000000000EE
:1072A000000038003800380038003BF83E1C3C1C19
:1072B000380C380C380C380C381C3C781FE00000B7
:1072C00000000000000000000000000000000000BE
:1072D0000000000000000000000007F80E001C0085
:1072E00038003800380038001C000F1807F800007C
:1072F000000000000000000000000000000000008E
:107300000000001C001C001C001C0FFC1C1C381C76
:10731000301C301C301C301C383C1CFC0F9C000006
:10732000000000000000000000000000000000005D
:10733000000000000000000000000FF01C38381CA6
:10734000300C3FFC3000300038001E0C07FC000001
:10735000000000000000000000000000000000002D
:10736000003C01FE03800300030003007FFC7FFC60
:1073700003000300030003000300030003000000F8
:1073800000000000000000000000000000000000FD
:10739000000000000000000000000FFE1C3838183C
:1073A000381818381FF03B8030003FF01FFC300EBB
:1073B000700E381C1FF800000000000000000000E4
:1073C000000038003800380038003BF83E383C1CDC
:1073D000381C381C381C381C381C381C381C000061
:1073E000000000000000000000000000000000009D
:1073F000018003C003C0000000001FC001C001C025
:1074000001C001C001C001C001C001C03FFC0000BB
:10741000000000000000000000000000000000006C
:10742000002000700070000000003FF0007000704D
:1074300000700070007000700070007000700070CC
:10744000007020E03FC000000000000000000000CD
:1074500000001800180018001800183C187018E0F8
:107460001B801F001B8019E018701838181C0000C2
:10747000000000000000000000000000000000000C
:1074800000001FC001C001C001C001C001C001C097
:1074900001C001C001C001C001C001C03FFC00002B
:1074A00000000000000000000000000000000000DC
:1074B000000000000000000000006F3C79EE71CE7B
:1074C000718E718E718E718E718E718E718E0000C3
:1074D00000000000000000000000000000000000AC
:1074E000000000000000000000003BF83E383C1C9B
:1074F000381C381C381C381C381C381C381C000040
:10750000000000000000000000000000000000007B
:10751000000000000000000000000FF01C3C381CC0
:10752000700E700E700E700C381C1E780FE000008C
:10753000000000000000000000000000000000004B
:10754000000000000000000000003BF83E1C3C1C56
:10755000380C380C380C380C381C3C783FE03800BC
:107560003800380038000000000000000000000073
:10757000000000000000000000000FFC1C1C381C74
:10758000301C301C301C301C383C1CFC0F9C001C78
:10759000001C001C001C0000000000000000000097
:1075A0000000000000000000000019F81F1C1C0C67
:1075B000180E180018001800180018001800000015
:1075C00000000000000000000000000000000000BB
:1075D000000000000000000000000FF81C00180070
:1075E0001E000FC001F80018001818381FF0000026
:1075F000000000000000000000000000000000008B
:10760000000000000600060006007FFC06000600E1
:1076100006000600060006000700078401FC0000C3
:10762000000000000000000000000000000000005A
:1076300000000000000000000000381C381C381C4E
:10764000381C381C381C381C383C1CFC0FDC000073
:10765000000000000000000000000000000000002A
:1076600000000000000000000000700C381C3818FA
:107670001C380C300E70066007E003C003C0000029
:1076800000000000000000000000000000000000FA
:107690000000000000000000000060066006618637
:1076A000738E73CC33CC366C366C3C3C3C3800006B
:1076B00000000000000000000000000000000000CA
:1076C00000000000000000000000381C1C380E7094
:1076D00007E003C003C007E00E701C38381E00002E
:1076E000000000000000000000000000000000009A
:1076F00000000000000000000000700C381C38186A
:107700001C380C300E70066007E003C003C0038015
:1077100007000E007C0000000000000000000000D8
:10772000000000000000000000001FF8003800709A
:1077300000E001C0038007000C001FFC3FFC0000BC
:107740000000000000000000000000000000000039
:10775000007801F803800380038003800380030026
:107760003F003E000300038003800380038003800A
:10777000038001C000F800000000000001800180CB
:1077800001800180018001800180018001800180F1
:1077900001800180018001800180018001800180E1
:1077A0000180018001800000000000000000000056
:1077B0001E001F80018001C001C001C001C000C0C7
:1077C00000FC007C00C001C001C001C001C001C0BC
:1077D00001C003801F000000000000000000000046
:1077E00000000000000000000000000000001C007D
:1077F0003F0671CE60FC00000000000000000000A9
:107800000000000000000000000000000000000078
:107810000000000000000000000000000000000068
:107820000000000000000000000000000000000058
:107830000000000000000000000000000000000048
:107840000000000000000000000000000000000038
:107850000000000000000000000000000000000028
:107860000000000000000000000000000000000018
:1078700000000000000000000000003C00003C0090
:10788000003C00003C00003C00003C00003C0000CC
:107890003C00003C00003C00003C00003C00003C80
:1078A00000003C00000000000000003C00007E00E2
:1078B000003C00000000000000000000000000008C
:1078C00000000000000000000000000000000000B8
:1078D0000000000000000000000003C3E003C3E05C
:1078E00003C3C003C3C003C3C003C3C003C1C000FC
:1078F0000000000000000000000000000000000088
:107900000000000000000000000000000000000077
:107910000000000000000000000000000000000067
:107920000000000000000000000000000000000057
:107930000000000000000000000000000000000047
:1079400001E0E001C0E001C0E001C0E03FFFFE3F18
:10795000FFFE03C1C00381C00381C00381C07FFF5C
:10796000FC7FFFFC078380070380070380070380F9
:107970000707800000000000000000000000000079
:1079800000000000000000000000000000000000F7
:1079900000000000000000000700000F00000E00C3
:1079A00001FFF007FFF01F0E001E1E001E1C001E30
:1079B0001C000FDC0007FC0000FF80003FF00038D7
:1079C000F800387800783C0070783071F83FFFE0BC
:1079D0001FFF0000E00000E00000E00000000000E9
:1079E0000000000000000000000000000000000097
:1079F000000000000000000000000F800F3FE01EAC
:107A000078703C7070707070E07071C03FE3801FE0
:107A1000C700000E00001C0000780000F0F001E735
:107A2000FC03CF0E078E0E0F0E0E1E0E0E3C07BC73
:107A30007003F800000000000000000000000000DB
:107A40000000000000000000000000000000000036
:107A50000000000000000000000000000001FF0026
:107A600007FF800F03C00F03C00F03C00F0780077D
:107A70009F0003FE0003F0000FF83C3E7C3C3C1FDF
:107A80003C780FF87807F87C01F03E03F81FFFFC04
:107A900007FE1F00000000000000000000000000C2
:107AA00000000000000000000000000000000000D6
:107AB00000000000000000000000003E00003C004C
:107AC000003C00003C00003C00003C00003C00008A
:107AD00000000000000000000000000000000000A6
:107AE0000000000000000000000000000000000096
:107AF0000000000000000000000000000000000086
:107B00000000000000000000000000000000000075
:107B1000000000000000000000800001C00007809D
:107B2000000F00001E00003C0000780000F0000084
:107B3000E00001E00001E00001C00003C00003C05C
:107B40000001C00001E00001E00000F00000F000D2
:107B5000007800003C00001E00000F000007C0007D
:107B600001C0000000000000000000000000000054
:107B70000000000000000000000003C00001E00061
:107B800000F000007C00003E00001E00000F00001E
:107B900007800007800003800003C00003C00003CB
:107BA000C00003C0000380000780000780000F00B2
:107BB000001E00003C0000780000F00001E000031F
:107BC0008000000000000000000000000000000035
:107BD00000000000000000000000001C00001C006D
:107BE0000018000F18F007DBE0007F0000FF00071F
:107BF000DBE00E1870001800001C00001C000000E4
:107C00000000000000000000000000000000000074
:107C10000000000000000000000000000000000064
:107C20000000000000000000000000000000000054
:107C30000000000000000000000000000000000044
:107C4000000000000000000000003C00003C0000BC
:107C50003C00003C00003C00003C003FFFFC3FFFBC
:107C6000FC003C00003C00003C00003C00003C00EC
:107C70000000000000000000000000000000000004
:107C800000000000000000000000000000000000F4
:107C900000000000000000000000000000000000E4
:107CA00000000000000000000000000000000000D4
:107CB00000000000000000000000000000000000C4
:107CC00000000000000000007C00007E00007E003C
:107CD000003E00001E00003C0000F80007E0000429
:107CE0000000000000000000000000000000000094
:107CF0000000000000000000000000000000000084
:107D00000000000000000000000000000000000073
:107D1000000000000000000000000003FFE003FF7F
:107D2000E000000000000000000000000000000073
:107D30000000000000000000000000000000000043
:107D40000000000000000000000000000000000033
:107D50000000000000000000000000000000000023
:107D60000000000000000000000000000000000013
:107D70000000000000000000000000000000000003
:107D800000000000000000007C0000FE0000FE007B
:107D9000007E000000000000000000000000000065
:107DA00000000000000000000000000000000000D3
:107DB000000000000000000000000000780000F05B
:107DC0000000E00001E00003C00003800007800025
:107DD0000F00000E00001E00003C00003800007084
:107DE0000000F00000E00001C00003C000078000B8
:107DF0000700000F00001E00001C00000000000033
:107E00000000000000000000000000000000000072
:107E10000000000000000000000000000000000062
:107E200001FFC007FFE00F00F01E00781E003C3C81
:107E300000FC3C07FC3C1FBC3C7C1C3DF03C3FC0B4
:107E40003C3F003C1E00381E00780F80F007FFE02A
:107E500001FF8000000000000000000000000000A2
:107E60000000000000000000000000000000000012
:107E70000000000000000000000000000000000002
:107E8000007E0003FE001FDE000E1E00001E00002C
:107E90001E00001E00001E00001E00001E00001E2E
:107EA00000001E00001E00001E00001E000FFFF854
:107EB0000FFFF800000000000000000000000000BC
:107EC00000000000000000000000000000000000B2
:107ED00000000000000000000000000000000000A2
:107EE00003FF800FFFE00E01F00000F00000F00043
:107EF00000F00000F00001E00003C0000F80003E31
:107F000000007C0001F00003C0000F80001FFFFC98
:107F10001FFFFC0000000000000000000000000047
:107F20000000000000000000000000000000000051
:107F30000000000000000000000000000000000041
:107F40000FFF800FFFE00001E00000F00000F000F4
:107F500001E00003C001FF0001FFC00003F00000CA
:107F6000780000780000780000780001F00FFFC072
:107F70000FFF0000000000000000000000000000F3
:107F800000000000000000000000000000000000F1
:107F900000000000000000000000000000000000E1
:107FA000000FC0001FC0003FC0007BC000F3C00135
:107FB000E3C003C3C00783C00F03C01C03C0380362
:107FC000C07FFFFE7FFFFE0003C00003C00003C0B0
:107FD0000003C000000000000000000000000000DE
:107FE0000000000000000000000000000000000091
:107FF0000000000000000000000000000000000081
:108000000FFFE00FFFE00F00000F00000F00000F58
:1080100000000F00000FFF800FFFE00000F00000E5
:10802000780000780000780000F00003E00FFFC047
:108030000FFE000000000000000000000000000033
:108040000000000000000000000000000000000030
:108050000000000000000000000000000000000020
:10806000003FF001FFF003E0000780000F00001E5A
:1080700000001E1F001FFFE01FC1F81E00781E0039
:108080003C1E003C1E003C0F00780F80F807FFE00C
:1080900001FF800000000000000000000000000060
:1080A00000000000000000000000000000000000D0
:1080B00000000000000000000000000000000000C0
:1080C0001FFFFC1FFFFC0000780000F00000E00034
:1080D00001E00003C0000780000F00000F00001E39
:1080E00000003C0000780000F00001F00001E0001A
:1080F00003C00000000000000000000000000000BD
:10810000000000000000000000000000000000006F
:10811000000000000000000000000000000000005F
:1081200003FFE00FE3F00F00781E00781E00780FC9
:1081300000F007E3E001FF8001FF8007E7E00F00A8
:10814000F81E00781E003C1E007C1F00F80FFFF098
:1081500003FFC0000000000000000000000000005D
:10816000000000000000000000000000000000000F
:1081700000000000000000000000000000000000FF
:1081800003FF800FC7E01E00F01E00783C00783C23
:1081900000783C00381E00780FEFF807FFB80000A9
:1081A000780000780000F00001E0000FC00FFF0031
:1081B0000FF00000000000000000000000000000C0
:1081C00000000000000000000000000000000000AF
:1081D000000000000000000000000000000000009F
:1081E000000000000000000000000000007E000011
:1081F0007E00007E0000180000000000000000006B
:1082000000000000000000003C00007E00007E0036
:10821000003E000000000000000000000000000020
:10822000000000000000000000000000000000004E
:10823000000000000000000000000000000000003E
:10824000000000000000000000000000007E0000B0
:108250007E00007E0000180000000000000000000A
:1082600000000000000000003E00007E00007F00D3
:10827000001F00001E00001E0000FC0007F00004AC
:1082800000000000000000000000000000000000EE
:1082900000000000000000000000000000000000DE
:1082A0000000000000000000400001E00007C000E6
:1082B0001F00007E0001F80003E0000F80000F8027
:1082C0000003E00000F800003E00000F800003E023
:1082D0000000E000000000000000000000000000BE
:1082E000000000000000000000000000000000008E
:1082F000000000000000000000000000000000007E
:10830000000000000000000000000000000000006D
:1083100000000000001FFFF8000000000000000047
:10832000001FFFF81FFFF800000000000000000021
:10833000000000000000000000000000000000003D
:10834000000000000000000000000000000000002D
:10835000000000000000000000000000000000001D
:1083600000000000000000000007800003E00000A3
:10837000F800003E00000F800003E00000F800015C
:10838000F00007C0001F00007C0001F00007C000E3
:1083900003000000000000000000000000000000DA
:1083A00000000000000000000000000000000000CD
:1083B0000000000000000000000001C00001FE00FD
:1083C000007F800007C00001E00000F00000F00026
:1083D00001F00003E0007FC0007E0000700000702C
:1083E0000000700000000000000000F80000F8002D
:1083F00000F8000000000000000000000000000085
:10840000000000000000000000000000000000006C
:1084100000000000000000000000001F8000FFF0CE
:1084200003C07807801C0E000E1C000E3C000F38A5
:108430003FC778FFC770E3C771C3C7F3C387E3C300
:1084400087E3878EE3878EE3CF8EE3FFFC71F9F03D
:108450007000007000003800003C00000F01C007F1
:10846000FFC000000000000000000000000000004D
:1084700000000000000000000000000000000000FC
:10848000007E00007F0000FF0000E78001E780031E
:10849000C3C003C3C00781E00781E00F00F00F00F5
:1084A000F81FFFF81FFFFC3C003C3C001E78001E3C
:1084B000F0000F00000000000000000000000000BD
:1084C00000000000000000000000000000000000AC
:1084D000000000000000000000000000000000009C
:1084E0001FFFC01FFFF01E00F01E00781E00781E48
:1084F00000F01E01F01FFFC01FFFE01E01F81E006C
:10850000781E003C1E003C1E00781E00F81FFFE095
:108510001FFF00000000000000000000000000003D
:10852000000000000000000000000000000000004B
:10853000000000000000000000000000000000003B
:1085400000FFF803FFF807C0000F00001E00001E28
:1085500000003C00003C00003C00003C00003C00EF
:10856000003E00001E00000F00000FC00803FFF8CF
:1085700000FFF80000000000000000000000000004
:1085800000000000000000000000000000000000EB
:1085900000000000000000000000000000000000DB
:1085A0003FFF003FFFE03C01F03C00783C003C3CDA
:1085B000003C3C003C3C001E3C001E3C001E3C00BD
:1085C0003C3C003C3C00783C00F83C07E03FFFC0EE
:1085D0003FFC000000000000000000000000000060
:1085E000000000000000000000000000000000008B
:1085F000000000000000000000000000000000007B
:108600000FFFF00FFFF00F00000F00000F00000F32
:1086100000000F00000FFFF00FFFF00F00000F0031
:10862000000F00000F00000F00000F00000FFFF010
:108630000FFFF0000000000000000000000000003C
:10864000000000000000000000000000000000002A
:10865000000000000000000000000000000000001A
:108660000FFFF00FFFF00F00000F00000F00000FD2
:1086700000000F00000FFFF00FFFF00F00000F00D1
:10868000000F00000F00000F00000F00000F00009F
:108690000F000000000000000000000000000000CB
:1086A00000000000000000000000000000000000CA
:1086B00000000000000000000000000000000000BA
:1086C00000FFFC03FFFC0FC0041F00001E00003C65
:1086D00000003C0000780FFC780FFC78003C3C0068
:1086E0003C3C003C3E003C1F003C0FC03C03FFFCF8
:1086F00000FFF80000000000000000000000000083
:108700000000000000000000000000000000000069
:108710000000000000000000000000000000000059
:108720003C003C3C003C3C003C3C003C3C003C3CB5
:10873000003C3C003C3FFFFC3FFFFC3C003C3C005D
:108740003C3C003C3C003C3C003C3C003C3C003C95
:108750003C003C00000000000000000000000000A1
:108760000000000000000000000000000000000009
:1087700000000000000000000000000000000000F9
:108780000FFFF80FFFF8003C00003C00003C000029
:108790003C00003C00003C00003C00003C00003C71
:1087A00000003C00003C00003C00003C000FFFF8D3
:1087B0000FFFF800000000000000000000000000B3
:1087C00000000000000000000000000000000000A9
:1087D0000000000000000000000000000000000099
:1087E0000FFFE00FFFE00001E00001E00001E0000A
:1087F00001E00001E00001E00001E00001E0000113
:10880000E00001E00001E00003C00C07C00FFF80A2
:1088100007FE000000000000000000000000000053
:108820000000000000000000000000000000000048
:108830000000000000000000000000000000000038
:108840001E00781E01F01E03C01E07801E1F001EA2
:108850003C001E78001EF0001FF0001EF8001E3CB9
:10886000001E1E001E0F801E07C01E01E01E00F825
:108870001E007C000000000000000000000000005E
:1088800000000000000000000000000000000000E8
:1088900000000000000000000000000000000000D8
:1088A000078000078000078000078000078000071E
:1088B0008000078000078000078000078000078095
:1088C0000007800007800007800007800007FFF88E
:1088D00007FFF8000000000000000000000000009A
:1088E0000000000000000000000000000000000088
:1088F0000000000000000000000000000000000078
:108900003E007C3F00FC3F81DC3B81DC3BC39C396B
:10891000C39C38E71C38EF1C387E1C387C1E383C62
:108920001E78001E78001E78001E78001E78001E3B
:1089300078001E00000000000000000000000000A1
:108940000000000000000000000000000000000027
:108950000000000000000000000000000000000017
:108960001F003C1F803C1FC03C1DC03C1DE03C1C48
:10897000F03C1C783C1C783C1C3C3C1C1E3C1C0FF6
:108980003C1C0F3C1C07BC1C03FC1C01FC1C00FC19
:108990001C00FC00000000000000000000000000BF
:1089A00000000000000000000000000000000000C7
:1089B00000000000000000000000000000000000B7
:1089C00001FFC007FFF00F00F81E007C3C003C3C9C
:1089D000001E78001E78001E78001E78001E7800A9
:1089E0001E3C003C3C003C1E00781F00F007FFE0EE
:1089F00001FF8000000000000000000000000000F7
:108A00000000000000000000000000000000000066
:108A10000000000000000000000000000000000056
:108A20001FFF801FFFF01E00F81E007C1E003C1E72
:108A3000003C1E003C1E00781E03F01FFFC01FFEFE
:108A4000001E00001E00001E00001E00001E000090
:108A50001E000000000000000000000000000000F8
:108A60000000000000000000000000000000000006
:108A700000000000000000000000000000000000F6
:108A800001FFC007FFF00F00F81E007C3C003C3CDB
:108A9000001E78001E78001E78001E78001E7800E8
:108AA0001E3C003C3C003C1E00781F80F007FFE0AD
:108AB00001FF80003C00003C00001F06000FFF008B
:108AC00001F80000000000000000000000000000AD
:108AD0000000000000000000000000000000000096
:108AE0000FFF800FFFE00E01F00E00F00E00F00E01
:108AF00000F00E01F00FFFC00FFF000E1F000E0769
:108B0000800E03C00E01E00E00F00E00F80E00789B
:108B10000E003C000000000000000000000000000B
:108B20000000000000000000000000000000000045
:108B30000000000000000000000000000000000035
:108B400003FFF00FFFF01F00001E00001E00001FBB
:108B500000000FC00007FC0000FF80000FF00001C4
:108B6000F80000780000780000782000F83FFFE06F
:108B70003FFF800000000000000000000000000037
:108B800000000000000000000000000000000000E5
:108B900000000000000000000000000000000000D5
:108BA0003FFFFC3FFFFC003C00003C00003C00009D
:108BB0003C00003C00003C00003C00003C00003C4D
:108BC00000003C00003C00003C00003C00003C0079
:108BD000003C000000000000000000000000000059
:108BE0000000000000000000000000000000000085
:108BF0000000000000000000000000000000000075
:108C00003C003C3C003C3C003C3C003C3C003C3CD0
:108C1000003C3C003C3C003C3C003C3C003C3C00FC
:108C20003C3C003C3C003C1E00781F00F80FFFE07D
:108C300003FF8000000000000000000000000000B2
:108C40000000000000000000000000000000000024
:108C50000000000000000000000000000000000014
:108C6000F8000F78001E3C001E3C003C1E00381E21
:108C700000780F00700F00F00781E00781E003C368
:108C8000C003E3C001E78000F78000FF00007E0022
:108C9000007E000000000000000000000000000056
:108CA00000000000000000000000000000000000C4
:108CB00000000000000000000000000000000000B4
:108CC00078000E78000E78000E78001E38001E38EE
:108CD000001E383C1C383C1C387E1C387F1C3CE78E
:108CE0001C3CE79C3DC39C1DC3DC1F81DC1F80F83E
:108CF0001F00F8000000000000000000000000005D
:108D00000000000000000000000000000000000063
:108D10000000000000000000000000000000000053
:108D20003C003C1E00780F00F00781E003C3C00147
:108D3000E78000FF00007E00007E0000FF0001FFD2
:108D40008003E7C007C3E00F81F01F00F83E007CFE
:108D50007C003E0000000000000000000000000059
:108D60000000000000000000000000000000000003
:108D700000000000000000000000000000000000F3
:108D800078001F3C003E1E007C1F00780F80F0071B
:108D9000C1E003E3C001E78000FF00007E00003C6B
:108DA00000003C00003C00003C00003C00003C0097
:108DB000003C000000000000000000000000000077
:108DC00000000000000000000000000000000000A3
:108DD0000000000000000000000000000000000093
:108DE0001FFFFC1FFFFC0000F80001E00003C000B3
:108DF0000780000F00001E00003C0000780000F01B
:108E00000003E00007C0000F80001F00003FFFFCD0
:108E10003FFFFC0000000000000000000000000018
:108E20000000000000000000000000000000000042
:108E30000000000000000000000001FFC001FFC0B2
:108E400001E00001E00001E00001E00001E00001BC
:108E5000E00001E00001E00001E00001E00001E0CD
:108E60000001E00001E00001E00001E00001E0009D
:108E700001E00001E00001E00001E00001E000018C
:108E8000FFC0000000000000000000000000000023
:108E9000000000000000000000000E00000F0000B5
:108EA00007000003800003C00001E00000E00000B4
:108EB000F000007800003800003C00001E00000EAA
:108EC00000000F000007800003800001C00001E0E7
:108ED0000000E000007000007800003C000000008E
:108EE0000000000000000000000000000000000082
:108EF0000000000000000000000003FF8003FF806E
:108F000000078000078000078000078000078000BE
:108F100007800007800007800007800007800007A7
:108F2000800007800007800007800007800007801E
:108F3000000780000780000780000780000780038B
:108F4000FF800000000000000000000000000000A2
:108F50000000000000000000000000000000000011
:108F6000003C00007E0000E70001C3800381C007D1
:108F700000E00E00F01E007800000000000000007D
:108F800000000000000000000000000000000000E1
:108F900000000000000000000000000000000000D1
:108FA00000000000000000000000000000000000C1
:108FB00000000000000000000000000000000000B1
:108FC00000000000000000000000000000000000A1
:108FD0000000000000000000000000000000000091
:108FE0000000000000000000000000000000000081
:108FF000000000000000000000000000FFFFFFFF75
:10900000FFFF000000000000000000000000000062
:10901000000000000000000000000F800003E000DE
:1090200000F800003C00000000000000000000000C
:109030000000000000000000000000000000000030
:109040000000000000000000000000000000000020
:109050000000000000000000000000000000000010
:109060000000000000000000000000000000000000
:1090700000000000000000000000000000000000F0
:1090800000000000000000000000000007FFC00713
:10909000E7F00000F000007800007800FFF807FF1C
:1090A000F80F00781E00781E00781E03F80FFFF8F6
:1090B00007FC780000000000000000000000000035
:1090C00000000000000000000000000000000000A0
:1090D000000000000000000000001E00001E000054
:1090E0001E00001E00001E00001E00001E7FE01E6D
:1090F000FFF01FC0781F00781E003C1E003C1E00C1
:109100003C1E003C1E00381E00781E00F01FFFE0D1
:1091100007FF000000000000000000000000000049
:10912000000000000000000000000000000000003F
:10913000000000000000000000000000000000002F
:1091400000000000000000000000000000FFF0032D
:10915000FFF007C0000F80000F00001E00001E007F
:10916000001E00000F00000F800007C00003FFF08A
:1091700000FFF00000000000000000000000000000
:1091800000000000000000000000000000000000DF
:1091900000000000000000000000000078000078DF
:1091A00000007800007800007800007801FFF807E0
:1091B000FFF80F00781E00781E00783C00783C0015
:1091C000783C00781C00781E01F81F03F80FFF7828
:1091D00003FC780000000000000000000000000018
:1091E000000000000000000000000000000000007F
:1091F000000000000000000000000000000000006F
:1092000000000000000000000000000001FFC00797
:10921000E3F00F00F81E00781E003C1FFFFC1FFF4C
:10922000FC1C00001E00001E00000F800007FFF85D
:1092300001FFF80000000000000000000000000036
:10924000000000000000000000000000000000001E
:10925000000000000000000000000003FC001FFEF2
:10926000003E0000780000780000700000700000F0
:1092700070003FFFFC3FFFFC0070000070000070BA
:1092800000007000007000007000007000007000AE
:10929000007000000000000000000000000000005E
:1092A00000000000000000000000000000000000BE
:1092B00000000000000000000000000000000000AE
:1092C00000000000000000000000000003FFFC0799
:1092D000C3FC0F00F01E00F01E00F00F00F00F8323
:1092E000E00FFFC01E7C001C00001F00000FFFF0FD
:1092F0000FFFFC1E003C3C003C3C003C1F81F80F73
:10930000FFE0003800000000000000000000000046
:10931000000000000000000000001E00001E000011
:109320001E00001E00001E00001E00001E7FE01E2A
:10933000FFF01FC0F01F00781E00781E00781E008E
:10934000781E00781E00781E00781E00781E0078B7
:109350001E00780000000000000000000000000077
:1093600000000000000000000000000000000000FD
:1093700000000000000000000000003C00007E0033
:10938000007E00003C000000000000000FFE000F07
:10939000FE00001E00001E00001E00001E00001E39
:1093A00000001E00001E00001E00001E000FFFF83F
:1093B0000FFFF800000000000000000000000000A7
:1093C000000000000000000000000000000000009D
:1093D000000000000000000000000003800007E023
:1093E0000007E00003800000000000000FFFC00F36
:1093F000FFC00003C00003C00003C00003C000039F
:10940000C00003C00003C00003C00003C00003C0CD
:109410000003C00003C00003C00007801E3F001F00
:10942000FE0001C00000000000000000000000007D
:10943000000000000000000000000F00000F00000E
:109440000F00000F00000F00000F00000F00F80FCA
:1094500001E00F07C00F1F000F3C000FF8000FF8CE
:10946000000F3E000F1F000F07C00F03E00F00F8B2
:109470000F007C0000000000000000000000000061
:1094800000000000000000000000000000000000DC
:10949000000000000000000000000FFE000FFE00B2
:1094A000001E00001E00001E00001E00001E000026
:1094B0001E00001E00001E00001E00001E00001EF8
:1094C00000001E00001E00001E00001E000FFFF81E
:1094D0000FFFF80000000000000000000000000086
:1094E000000000000000000000000000000000007C
:1094F000000000000000000000000000000000006C
:1095000000000000000000000000000039F9F83BF6
:10951000BBBC3E3E1C3C3E1C383C1C383C1C383C12
:109520001C383C1C383C1C383C1C383C1C383C1C4F
:10953000383C1C000000000000000000000000009B
:10954000000000000000000000000000000000001B
:10955000000000000000000000000000000000000B
:109560000000000000000000000000001E7FE01E60
:10957000FFF01FC0F01F00781E00781E00781E004C
:10958000781E00781E00781E00781E00781E007875
:109590001E00780000000000000000000000000035
:1095A00000000000000000000000000000000000BB
:1095B00000000000000000000000000000000000AB
:1095C00000000000000000000000000001FFC007D4
:1095D000E7F00F00F81E003C3C003C3C003C3C0027
:1095E0003C3C003C3C003C1E00781F00F007FFE0C4
:1095F00001FF8000000000000000000000000000EB
:10960000000000000000000000000000000000005A
:10961000000000000000000000000000000000004A
:109620000000000000000000000000001E7FE01E9F
:10963000FFF01FC0781F00781E003C1E003C1E007B
:109640003C1E003C1E00381E00781E00F01FFFE08C
:109650001FFF001E00001E00001E00001E00001E56
:1096600000000000000000000000000000000000FA
:1096700000000000000000000000000000000000EA
:1096800000000000000000000000000001FFF807DB
:10969000F7F80F00781E00781E00783C00783C0038
:1096A000783C00781C00781E01F81F03F80FFF7843
:1096B00003FC780000780000780000780000780053
:1096C0000078000000000000000000000000000022
:1096D000000000000000000000000000000000008A
:1096E0000000000000000000000000000F1FF00F4D
:1096F0007FF80FE03C0F803C0F003C0F00000F0094
:10970000000F00000F00000F00000F00000F00000E
:109710000F0000000000000000000000000000003A
:109720000000000000000000000000000000000039
:109730000000000000000000000000000000000029
:1097400000000000000000000000000001FFE00732
:10975000E1E00F00000F000007800003FC0000FFA5
:10976000C0000FF00000F00000780000F00FFFE0F4
:109770000FFF80000000000000000000000000005B
:1097800000000000000000000000000000000000D9
:1097900000000000000000000000000000000000C9
:1097A00001E00001E00001E00001E0007FFFF87F40
:1097B000FFF801E00001E00001E00001E00001E04D
:1097C0000001E00001E00001E00000F000007FF88F
:1097D000003FF80000000000000000000000000052
:1097E0000000000000000000000000000000000079
:1097F0000000000000000000000000000000000069
:109800000000000000000000000000001E00781EA4
:1098100000781E00781E00781E00781E00781E005A
:10982000781E00781E00780E00F80F03F807FF7806
:1098300003FC7800000000000000000000000000B1
:109840000000000000000000000000000000000018
:109850000000000000000000000000000000000008
:109860000000000000000000000000003C003C1E62
:10987000007C1E00780F00F00F80F00781E003C32A
:10988000C003C3C001E78000E70000FF00007E00C6
:10989000003C00000000000000000000000000008C
:1098A00000000000000000000000000000000000B8
:1098B00000000000000000000000000000000000A8
:1098C00000000000000000000000000078000E789A
:1098D000001E78001E383C1E383C1C3C7E1C3C7E22
:1098E0003C1CE73C1CE7B81DC3B81FC3F80F81F848
:1098F0000F81F000000000000000000000000000E8
:109900000000000000000000000000000000000057
:109910000000000000000000000000000000000047
:109920000000000000000000000000001F007C0F8D
:1099300080F007C1E003E3C000F780007F00003E35
:109940000000FF0001E78003C3C00781F01F00F89B
:109950003E007C000000000000000000000000004D
:1099600000000000000000000000000000000000F7
:1099700000000000000000000000000000000000E7
:109980000000000000000000000000003C003C1E41
:10999000003C1E00780F00F00780F00781E003C153
:1099A000C003C3C001E78000F78000FF00007E0015
:1099B000003E00003C0000780001F0007FE0007FE6
:1099C0008000000000000000000000000000000017
:1099D0000000000000000000000000000000000087
:1099E0000000000000000000000000000FFFF00F6A
:1099F000FFF00001E00007C0000F80001E00003CE7
:109A00000000F80001E00003C0000780000FFFF82D
:109A10000FFFF80000000000000000000000000040
:109A20000000000000000000000000000000000036
:109A3000000000000000000000000007E0001FE040
:109A4000003C00003800003800007800007800007A
:109A500078000078000078001FF0001F800001F0FF
:109A6000000078000078000078000078000078009E
:109A7000007800007800003800003C00001F8000E3
:109A80000FE00000000000000000000000000000E7
:109A900000003C00003C00003C00003C00003C009A
:109AA000003C00003C00003C00003C00003C00008A
:109AB0003C00003C00003C00003C00003C00003C3E
:109AC00000003C00003C00003C00003C00003C006A
:109AD000003C00003C00003C00003C00003C00005A
:109AE0003C0000000000000000000000000000003A
:109AF0000000000000000000000007E00007F80080
:109B0000003C00001E00001E00001E00001E0000A1
:109B10001E00001E00000E00000FF80001F8000FEC
:109B200080000E00001E00001E00001E00001E002F
:109B3000001E00001E00001E00003C0000FC00078C
:109B4000F000000000000000000000000000000025
:109B50000000000000000000000000000000000005
:109B600000000000000000000000000000000000F5
:109B7000000000000007C0001FF01E3C7C1E381FC4
:109B8000FC7807F800000000000000000000000062
:109B900000000000000000000000000000000000C5
:109BA00000000000000000000000010002000100B1
:109BB0000300010002000100040001000200010096
:109BC0000300010002000100050001000200010085
:109BD0000300010002000100040001000200010076
:109BE0000300010002000100060001000200010064
:109BF0000300010002000100040001000200010056
:109C00000300010002000100050001000200010044
:109C10000300010002000100040001000200010035
:109C20000300010002000100070001000200010022
:109C30000300010002000100040001000200010015
:109C40000300010002000100050001000200010004
:109C500003000100020001000400010002000100F5
:109C600003000100020001000600010002000100E3
:109C700003000100020001000400010002000100D5
:109C800003000100020001000500010002000100C4
:109C900003000100020001000400010002000100B5
:109CA0000300010002000100303132333435363711
:109CB0003839616263646566003031323334353679
:109CC00037383941424344454600000053696E67C6
:109CD0006C6500004E6F726D616C000052756E0015
:109CE000446F776E000000004175746F0000000043
:109CF0005570000053746F7000000000F55F00089D
:109D0000ED5F0008E95F0008F15F00082C9D000886
:109D100000000020A401000010090008EC9D0008CC
:109D2000A4010020B4180000343900081184A24AAC
:109D300004680901020304060708090C691085027A
:109D400004060812F034400106224C222014FFFFC2
:109D5000A0128212C8432C01134860130808121085
:109D600013386613081012181308782B08182701E7
:109D70001F13F49C1B08DC041AF0041AE0041AE810
:109D8000041AD4041ACC04323232642AC828196660
:109D900023E80323D0072388131B102785224E2393
:109DA00050C314A0860114400D0312012B010CD1E5
:109DB0002950312A4054294C293801381324012ACA
:109DC0002004327829E91A340C290429DA296C1A7A
:109DD000440C2904323032051A540C290432342A36
:0C9DE00009C0190C290402372C000000F7
:0400000508000131BD
:00000001FF
